{
  "contractName": "TimelockController",
  "abi": [
    {
      "inputs": [
        {
          "internalType": "address payable",
          "name": "_devWalletAddress",
          "type": "address"
        },
        {
          "internalType": "uint256",
          "name": "_minDelay",
          "type": "uint256"
        },
        {
          "internalType": "uint256",
          "name": "_minDelayReduced",
          "type": "uint256"
        }
      ],
      "stateMutability": "nonpayable",
      "type": "constructor"
    },
    {
      "anonymous": false,
      "inputs": [
        {
          "indexed": true,
          "internalType": "bytes32",
          "name": "id",
          "type": "bytes32"
        },
        {
          "indexed": true,
          "internalType": "uint256",
          "name": "index",
          "type": "uint256"
        },
        {
          "indexed": false,
          "internalType": "address",
          "name": "target",
          "type": "address"
        },
        {
          "indexed": false,
          "internalType": "uint256",
          "name": "value",
          "type": "uint256"
        },
        {
          "indexed": false,
          "internalType": "bytes",
          "name": "data",
          "type": "bytes"
        }
      ],
      "name": "CallExecuted",
      "type": "event"
    },
    {
      "anonymous": false,
      "inputs": [
        {
          "indexed": true,
          "internalType": "bytes32",
          "name": "id",
          "type": "bytes32"
        },
        {
          "indexed": true,
          "internalType": "uint256",
          "name": "index",
          "type": "uint256"
        },
        {
          "indexed": false,
          "internalType": "address",
          "name": "target",
          "type": "address"
        },
        {
          "indexed": false,
          "internalType": "uint256",
          "name": "value",
          "type": "uint256"
        },
        {
          "indexed": false,
          "internalType": "bytes",
          "name": "data",
          "type": "bytes"
        },
        {
          "indexed": false,
          "internalType": "bytes32",
          "name": "predecessor",
          "type": "bytes32"
        },
        {
          "indexed": false,
          "internalType": "uint256",
          "name": "delay",
          "type": "uint256"
        }
      ],
      "name": "CallScheduled",
      "type": "event"
    },
    {
      "anonymous": false,
      "inputs": [
        {
          "indexed": true,
          "internalType": "bytes32",
          "name": "id",
          "type": "bytes32"
        }
      ],
      "name": "Cancelled",
      "type": "event"
    },
    {
      "anonymous": false,
      "inputs": [
        {
          "indexed": false,
          "internalType": "uint256",
          "name": "oldDuration",
          "type": "uint256"
        },
        {
          "indexed": false,
          "internalType": "uint256",
          "name": "newDuration",
          "type": "uint256"
        }
      ],
      "name": "MinDelayChange",
      "type": "event"
    },
    {
      "anonymous": false,
      "inputs": [
        {
          "indexed": false,
          "internalType": "uint256",
          "name": "oldDuration",
          "type": "uint256"
        },
        {
          "indexed": false,
          "internalType": "uint256",
          "name": "newDuration",
          "type": "uint256"
        }
      ],
      "name": "MinDelayReducedChange",
      "type": "event"
    },
    {
      "anonymous": false,
      "inputs": [
        {
          "indexed": true,
          "internalType": "bytes32",
          "name": "role",
          "type": "bytes32"
        },
        {
          "indexed": true,
          "internalType": "bytes32",
          "name": "previousAdminRole",
          "type": "bytes32"
        },
        {
          "indexed": true,
          "internalType": "bytes32",
          "name": "newAdminRole",
          "type": "bytes32"
        }
      ],
      "name": "RoleAdminChanged",
      "type": "event"
    },
    {
      "anonymous": false,
      "inputs": [
        {
          "indexed": true,
          "internalType": "bytes32",
          "name": "role",
          "type": "bytes32"
        },
        {
          "indexed": true,
          "internalType": "address",
          "name": "account",
          "type": "address"
        },
        {
          "indexed": true,
          "internalType": "address",
          "name": "sender",
          "type": "address"
        }
      ],
      "name": "RoleGranted",
      "type": "event"
    },
    {
      "anonymous": false,
      "inputs": [
        {
          "indexed": true,
          "internalType": "bytes32",
          "name": "role",
          "type": "bytes32"
        },
        {
          "indexed": true,
          "internalType": "address",
          "name": "account",
          "type": "address"
        },
        {
          "indexed": true,
          "internalType": "address",
          "name": "sender",
          "type": "address"
        }
      ],
      "name": "RoleRevoked",
      "type": "event"
    },
    {
      "inputs": [],
      "name": "DEFAULT_ADMIN_ROLE",
      "outputs": [
        {
          "internalType": "bytes32",
          "name": "",
          "type": "bytes32"
        }
      ],
      "stateMutability": "view",
      "type": "function"
    },
    {
      "inputs": [],
      "name": "EXECUTOR_ROLE",
      "outputs": [
        {
          "internalType": "bytes32",
          "name": "",
          "type": "bytes32"
        }
      ],
      "stateMutability": "view",
      "type": "function"
    },
    {
      "inputs": [],
      "name": "PROPOSER_ROLE",
      "outputs": [
        {
          "internalType": "bytes32",
          "name": "",
          "type": "bytes32"
        }
      ],
      "stateMutability": "view",
      "type": "function"
    },
    {
      "inputs": [],
      "name": "TIMELOCK_ADMIN_ROLE",
      "outputs": [
        {
          "internalType": "bytes32",
          "name": "",
          "type": "bytes32"
        }
      ],
      "stateMutability": "view",
      "type": "function"
    },
    {
      "inputs": [],
      "name": "devWalletAddress",
      "outputs": [
        {
          "internalType": "address payable",
          "name": "",
          "type": "address"
        }
      ],
      "stateMutability": "view",
      "type": "function"
    },
    {
      "inputs": [
        {
          "internalType": "bytes32",
          "name": "role",
          "type": "bytes32"
        }
      ],
      "name": "getRoleAdmin",
      "outputs": [
        {
          "internalType": "bytes32",
          "name": "",
          "type": "bytes32"
        }
      ],
      "stateMutability": "view",
      "type": "function"
    },
    {
      "inputs": [
        {
          "internalType": "bytes32",
          "name": "role",
          "type": "bytes32"
        },
        {
          "internalType": "uint256",
          "name": "index",
          "type": "uint256"
        }
      ],
      "name": "getRoleMember",
      "outputs": [
        {
          "internalType": "address",
          "name": "",
          "type": "address"
        }
      ],
      "stateMutability": "view",
      "type": "function"
    },
    {
      "inputs": [
        {
          "internalType": "bytes32",
          "name": "role",
          "type": "bytes32"
        }
      ],
      "name": "getRoleMemberCount",
      "outputs": [
        {
          "internalType": "uint256",
          "name": "",
          "type": "uint256"
        }
      ],
      "stateMutability": "view",
      "type": "function"
    },
    {
      "inputs": [
        {
          "internalType": "bytes32",
          "name": "role",
          "type": "bytes32"
        },
        {
          "internalType": "address",
          "name": "account",
          "type": "address"
        }
      ],
      "name": "grantRole",
      "outputs": [],
      "stateMutability": "nonpayable",
      "type": "function"
    },
    {
      "inputs": [
        {
          "internalType": "bytes32",
          "name": "role",
          "type": "bytes32"
        },
        {
          "internalType": "address",
          "name": "account",
          "type": "address"
        }
      ],
      "name": "hasRole",
      "outputs": [
        {
          "internalType": "bool",
          "name": "",
          "type": "bool"
        }
      ],
      "stateMutability": "view",
      "type": "function"
    },
    {
      "inputs": [],
      "name": "minDelay",
      "outputs": [
        {
          "internalType": "uint256",
          "name": "",
          "type": "uint256"
        }
      ],
      "stateMutability": "view",
      "type": "function"
    },
    {
      "inputs": [],
      "name": "minDelayReduced",
      "outputs": [
        {
          "internalType": "uint256",
          "name": "",
          "type": "uint256"
        }
      ],
      "stateMutability": "view",
      "type": "function"
    },
    {
      "inputs": [
        {
          "internalType": "bytes32",
          "name": "role",
          "type": "bytes32"
        },
        {
          "internalType": "address",
          "name": "account",
          "type": "address"
        }
      ],
      "name": "renounceRole",
      "outputs": [],
      "stateMutability": "nonpayable",
      "type": "function"
    },
    {
      "inputs": [
        {
          "internalType": "bytes32",
          "name": "role",
          "type": "bytes32"
        },
        {
          "internalType": "address",
          "name": "account",
          "type": "address"
        }
      ],
      "name": "revokeRole",
      "outputs": [],
      "stateMutability": "nonpayable",
      "type": "function"
    },
    {
      "stateMutability": "payable",
      "type": "receive"
    },
    {
      "inputs": [
        {
          "internalType": "bytes32",
          "name": "id",
          "type": "bytes32"
        }
      ],
      "name": "isOperationPending",
      "outputs": [
        {
          "internalType": "bool",
          "name": "pending",
          "type": "bool"
        }
      ],
      "stateMutability": "view",
      "type": "function"
    },
    {
      "inputs": [
        {
          "internalType": "bytes32",
          "name": "id",
          "type": "bytes32"
        }
      ],
      "name": "isOperationReady",
      "outputs": [
        {
          "internalType": "bool",
          "name": "ready",
          "type": "bool"
        }
      ],
      "stateMutability": "view",
      "type": "function"
    },
    {
      "inputs": [
        {
          "internalType": "bytes32",
          "name": "id",
          "type": "bytes32"
        }
      ],
      "name": "isOperationDone",
      "outputs": [
        {
          "internalType": "bool",
          "name": "done",
          "type": "bool"
        }
      ],
      "stateMutability": "view",
      "type": "function"
    },
    {
      "inputs": [
        {
          "internalType": "bytes32",
          "name": "id",
          "type": "bytes32"
        }
      ],
      "name": "getTimestamp",
      "outputs": [
        {
          "internalType": "uint256",
          "name": "timestamp",
          "type": "uint256"
        }
      ],
      "stateMutability": "view",
      "type": "function"
    },
    {
      "inputs": [],
      "name": "getMinDelay",
      "outputs": [
        {
          "internalType": "uint256",
          "name": "duration",
          "type": "uint256"
        }
      ],
      "stateMutability": "view",
      "type": "function"
    },
    {
      "inputs": [
        {
          "internalType": "address",
          "name": "target",
          "type": "address"
        },
        {
          "internalType": "uint256",
          "name": "value",
          "type": "uint256"
        },
        {
          "internalType": "bytes",
          "name": "data",
          "type": "bytes"
        },
        {
          "internalType": "bytes32",
          "name": "predecessor",
          "type": "bytes32"
        },
        {
          "internalType": "bytes32",
          "name": "salt",
          "type": "bytes32"
        }
      ],
      "name": "hashOperation",
      "outputs": [
        {
          "internalType": "bytes32",
          "name": "hash",
          "type": "bytes32"
        }
      ],
      "stateMutability": "pure",
      "type": "function"
    },
    {
      "inputs": [
        {
          "internalType": "address[]",
          "name": "targets",
          "type": "address[]"
        },
        {
          "internalType": "uint256[]",
          "name": "values",
          "type": "uint256[]"
        },
        {
          "internalType": "bytes[]",
          "name": "datas",
          "type": "bytes[]"
        },
        {
          "internalType": "bytes32",
          "name": "predecessor",
          "type": "bytes32"
        },
        {
          "internalType": "bytes32",
          "name": "salt",
          "type": "bytes32"
        }
      ],
      "name": "hashOperationBatch",
      "outputs": [
        {
          "internalType": "bytes32",
          "name": "hash",
          "type": "bytes32"
        }
      ],
      "stateMutability": "pure",
      "type": "function"
    },
    {
      "inputs": [
        {
          "internalType": "address",
          "name": "target",
          "type": "address"
        },
        {
          "internalType": "uint256",
          "name": "value",
          "type": "uint256"
        },
        {
          "internalType": "bytes",
          "name": "data",
          "type": "bytes"
        },
        {
          "internalType": "bytes32",
          "name": "predecessor",
          "type": "bytes32"
        },
        {
          "internalType": "bytes32",
          "name": "salt",
          "type": "bytes32"
        },
        {
          "internalType": "uint256",
          "name": "delay",
          "type": "uint256"
        }
      ],
      "name": "schedule",
      "outputs": [],
      "stateMutability": "nonpayable",
      "type": "function"
    },
    {
      "inputs": [
        {
          "internalType": "address[]",
          "name": "targets",
          "type": "address[]"
        },
        {
          "internalType": "uint256[]",
          "name": "values",
          "type": "uint256[]"
        },
        {
          "internalType": "bytes[]",
          "name": "datas",
          "type": "bytes[]"
        },
        {
          "internalType": "bytes32",
          "name": "predecessor",
          "type": "bytes32"
        },
        {
          "internalType": "bytes32",
          "name": "salt",
          "type": "bytes32"
        },
        {
          "internalType": "uint256",
          "name": "delay",
          "type": "uint256"
        }
      ],
      "name": "scheduleBatch",
      "outputs": [],
      "stateMutability": "nonpayable",
      "type": "function"
    },
    {
      "inputs": [
        {
          "internalType": "bytes32",
          "name": "id",
          "type": "bytes32"
        }
      ],
      "name": "cancel",
      "outputs": [],
      "stateMutability": "nonpayable",
      "type": "function"
    },
    {
      "inputs": [
        {
          "internalType": "address",
          "name": "target",
          "type": "address"
        },
        {
          "internalType": "uint256",
          "name": "value",
          "type": "uint256"
        },
        {
          "internalType": "bytes",
          "name": "data",
          "type": "bytes"
        },
        {
          "internalType": "bytes32",
          "name": "predecessor",
          "type": "bytes32"
        },
        {
          "internalType": "bytes32",
          "name": "salt",
          "type": "bytes32"
        }
      ],
      "name": "execute",
      "outputs": [],
      "stateMutability": "payable",
      "type": "function"
    },
    {
      "inputs": [
        {
          "internalType": "address[]",
          "name": "targets",
          "type": "address[]"
        },
        {
          "internalType": "uint256[]",
          "name": "values",
          "type": "uint256[]"
        },
        {
          "internalType": "bytes[]",
          "name": "datas",
          "type": "bytes[]"
        },
        {
          "internalType": "bytes32",
          "name": "predecessor",
          "type": "bytes32"
        },
        {
          "internalType": "bytes32",
          "name": "salt",
          "type": "bytes32"
        }
      ],
      "name": "executeBatch",
      "outputs": [],
      "stateMutability": "payable",
      "type": "function"
    },
    {
      "inputs": [
        {
          "internalType": "uint256",
          "name": "newDelay",
          "type": "uint256"
        }
      ],
      "name": "updateMinDelay",
      "outputs": [],
      "stateMutability": "nonpayable",
      "type": "function"
    },
    {
      "inputs": [
        {
          "internalType": "uint256",
          "name": "newDelay",
          "type": "uint256"
        }
      ],
      "name": "updateMinDelayReduced",
      "outputs": [],
      "stateMutability": "nonpayable",
      "type": "function"
    },
    {
      "inputs": [
        {
          "internalType": "address payable",
          "name": "_devWalletAddress",
          "type": "address"
        }
      ],
      "name": "setDevWalletAddress",
      "outputs": [],
      "stateMutability": "nonpayable",
      "type": "function"
    },
    {
      "inputs": [],
      "name": "withdrawBNB",
      "outputs": [],
      "stateMutability": "payable",
      "type": "function"
    },
    {
      "inputs": [
        {
          "internalType": "address",
          "name": "_tokenAddress",
          "type": "address"
        }
      ],
      "name": "withdrawBEP20",
      "outputs": [],
      "stateMutability": "payable",
      "type": "function"
    },
    {
      "inputs": [
        {
          "internalType": "address",
          "name": "_stratAddress",
          "type": "address"
        }
      ],
      "name": "earn",
      "outputs": [],
      "stateMutability": "nonpayable",
      "type": "function"
    },
    {
      "inputs": [
        {
          "internalType": "address",
          "name": "_stratAddress",
          "type": "address"
        }
      ],
      "name": "farm",
      "outputs": [],
      "stateMutability": "nonpayable",
      "type": "function"
    },
    {
      "inputs": [
        {
          "internalType": "address",
          "name": "_stratAddress",
          "type": "address"
        }
      ],
      "name": "pause",
      "outputs": [],
      "stateMutability": "nonpayable",
      "type": "function"
    },
    {
      "inputs": [
        {
          "internalType": "address",
          "name": "_stratAddress",
          "type": "address"
        }
      ],
      "name": "unpause",
      "outputs": [],
      "stateMutability": "nonpayable",
      "type": "function"
    },
    {
      "inputs": [
        {
          "internalType": "address",
          "name": "_stratAddress",
          "type": "address"
        }
      ],
      "name": "wrapBNB",
      "outputs": [],
      "stateMutability": "nonpayable",
      "type": "function"
    }
  ],
  "bytecode": "0x60806040523480156200001157600080fd5b5060405162004773380380620047738339818101604052810190620000379190620004eb565b6001808190555082600560006101000a81548173ffffffffffffffffffffffffffffffffffffffff021916908373ffffffffffffffffffffffffffffffffffffffff1602179055508160038190555080600481905550620000bf7f5f58e3a2316349923ce3780f8d587db2d72378aed66a8261c916544fa6846ca580620002c560201b60201c565b620001117fb09aa5aeb3702cfd50b6b62bc4532604938f21248a27a1d5ca736082b6819cc17f5f58e3a2316349923ce3780f8d587db2d72378aed66a8261c916544fa6846ca5620002c560201b60201c565b620001637fd8aa0f3194971a2a116679f7c2090f6939c8d4e01a2a8d7e41d55e5351469e637f5f58e3a2316349923ce3780f8d587db2d72378aed66a8261c916544fa6846ca5620002c560201b60201c565b620001a47f5f58e3a2316349923ce3780f8d587db2d72378aed66a8261c916544fa6846ca5620001986200032760201b60201c565b6200032f60201b60201c565b620001d67f5f58e3a2316349923ce3780f8d587db2d72378aed66a8261c916544fa6846ca5306200032f60201b60201c565b6200022a7fb09aa5aeb3702cfd50b6b62bc4532604938f21248a27a1d5ca736082b6819cc1600560009054906101000a900473ffffffffffffffffffffffffffffffffffffffff166200032f60201b60201c565b6200027e7fd8aa0f3194971a2a116679f7c2090f6939c8d4e01a2a8d7e41d55e5351469e63600560009054906101000a900473ffffffffffffffffffffffffffffffffffffffff166200032f60201b60201c565b7f11c24f4ead16507c69ac467fbd5e4eed5fb5c699626d2cc6d66421df253886d56000600354604051620002b492919062000563565b60405180910390a150505062000616565b8060008084815260200190815260200160002060020154837fbd79b86ffe0ab8e8776151514217cd7cacd52c909f66475c3af44e129f0b00ff60405160405180910390a480600080848152602001908152602001600020600201819055505050565b600033905090565b6200034182826200034560201b60201c565b5050565b6200037381600080858152602001908152602001600020600001620003e860201b62001de01790919060201c565b15620003e457620003896200032760201b60201c565b73ffffffffffffffffffffffffffffffffffffffff168173ffffffffffffffffffffffffffffffffffffffff16837f2f8788117e7eff1d82e926ec794901d17c78024a50270940304540a733656f0d60405160405180910390a45b5050565b600062000418836000018373ffffffffffffffffffffffffffffffffffffffff1660001b6200042060201b60201c565b905092915050565b60006200043483836200049a60201b60201c565b6200048f57826000018290806001815401808255809150506001900390600052602060002001600090919091909150558260000180549050836001016000848152602001908152602001600020819055506001905062000494565b600090505b92915050565b600080836001016000848152602001908152602001600020541415905092915050565b600081519050620004ce81620005e2565b92915050565b600081519050620004e581620005fc565b92915050565b6000806000606084860312156200050157600080fd5b60006200051186828701620004bd565b93505060206200052486828701620004d4565b92505060406200053786828701620004d4565b9150509250925092565b6200054c81620005ce565b82525050565b6200055d81620005c4565b82525050565b60006040820190506200057a600083018562000541565b62000589602083018462000552565b9392505050565b60006200059d82620005a4565b9050919050565b600073ffffffffffffffffffffffffffffffffffffffff82169050919050565b6000819050919050565b6000620005db82620005c4565b9050919050565b620005ed8162000590565b8114620005f957600080fd5b50565b6200060781620005c4565b81146200061357600080fd5b50565b61414d80620006266000396000f3fe6080604052600436106102135760003560e01c80638a99d58611610118578063be6c0297116100a0578063d45c44351161006f578063d45c44351461079f578063d547741f146107dc578063e38335e514610805578063f27a0c9214610821578063fdb5fefc1461084c5761021a565b8063be6c0297146106e5578063c4d252f51461070e578063c63c4e9b14610737578063ca15c873146107625761021a565b806391d14854116100e757806391d14854146105ee578063a217fddf1461062b578063a3c8873814610656578063a90909171461067f578063b1c5f427146106a85761021a565b80638a99d586146105345780638f2a0bb01461055d5780638f61f4f5146105865780639010d07c146105b15761021a565b8063248a9ca31161019b57806357b001f91161016a57806357b001f91461043d578063584b153e1461046657806376a67a51146104a35780638065657f146104cc578063886ce505146105095761021a565b8063248a9ca3146103715780632ab0f529146103ae5780632f2ff15d146103eb57806336568abe146104145761021a565b80630e038813116101e25780630e038813146102ba578063120a0612146102e5578063134008d31461030e57806313bc9f201461032a5780631d111d13146103675761021a565b806301d5062a1461021f578063047e40861461024857806307bd0265146102645780630d3cf6fc1461028f5761021a565b3661021a57005b600080fd5b34801561022b57600080fd5b5061024660048036038101906102419190612b35565b610875565b005b610262600480360381019061025d9190612a51565b610963565b005b34801561027057600080fd5b50610279610b1e565b6040516102869190613b1c565b60405180910390f35b34801561029b57600080fd5b506102a4610b42565b6040516102b19190613b1c565b60405180910390f35b3480156102c657600080fd5b506102cf610b66565b6040516102dc919061392e565b60405180910390f35b3480156102f157600080fd5b5061030c60048036038101906103079190612a7a565b610b8c565b005b61032860048036038101906103239190612aa3565b610cce565b005b34801561033657600080fd5b50610351600480360381019061034c9190612db0565b610de3565b60405161035e9190613b01565b60405180910390f35b61036f610e22565b005b34801561037d57600080fd5b5061039860048036038101906103939190612db0565b610fb9565b6040516103a59190613b1c565b60405180910390f35b3480156103ba57600080fd5b506103d560048036038101906103d09190612db0565b610fd8565b6040516103e29190613b01565b60405180910390f35b3480156103f757600080fd5b50610412600480360381019061040d9190612dd9565b610ff8565b005b34801561042057600080fd5b5061043b60048036038101906104369190612dd9565b61106b565b005b34801561044957600080fd5b50610464600480360381019061045f9190612a51565b6110ee565b005b34801561047257600080fd5b5061048d60048036038101906104889190612db0565b6111d5565b60405161049a9190613b01565b60405180910390f35b3480156104af57600080fd5b506104ca60048036038101906104c59190612a51565b6111f5565b005b3480156104d857600080fd5b506104f360048036038101906104ee9190612aa3565b6112dc565b6040516105009190613b1c565b60405180910390f35b34801561051557600080fd5b5061051e61131b565b60405161052b9190613df9565b60405180910390f35b34801561054057600080fd5b5061055b60048036038101906105569190612e51565b611321565b005b34801561056957600080fd5b50610584600480360381019061057f9190612ca8565b6113d4565b005b34801561059257600080fd5b5061059b6115bd565b6040516105a89190613b1c565b60405180910390f35b3480156105bd57600080fd5b506105d860048036038101906105d39190612e15565b6115e1565b6040516105e591906138f8565b60405180910390f35b3480156105fa57600080fd5b5061061560048036038101906106109190612dd9565b611612565b6040516106229190613b01565b60405180910390f35b34801561063757600080fd5b50610640611643565b60405161064d9190613b1c565b60405180910390f35b34801561066257600080fd5b5061067d60048036038101906106789190612a51565b61164a565b005b34801561068b57600080fd5b506106a660048036038101906106a19190612a51565b611731565b005b3480156106b457600080fd5b506106cf60048036038101906106ca9190612bdc565b611818565b6040516106dc9190613b1c565b60405180910390f35b3480156106f157600080fd5b5061070c60048036038101906107079190612e51565b61185d565b005b34801561071a57600080fd5b5061073560048036038101906107309190612db0565b611910565b005b34801561074357600080fd5b5061074c611a23565b6040516107599190613df9565b60405180910390f35b34801561076e57600080fd5b5061078960048036038101906107849190612db0565b611a29565b6040516107969190613df9565b60405180910390f35b3480156107ab57600080fd5b506107c660048036038101906107c19190612db0565b611a4f565b6040516107d39190613df9565b60405180910390f35b3480156107e857600080fd5b5061080360048036038101906107fe9190612dd9565b611a6c565b005b61081f600480360381019061081a9190612bdc565b611adf565b005b34801561082d57600080fd5b50610836611cef565b6040516108439190613df9565b60405180910390f35b34801561085857600080fd5b50610873600480360381019061086e9190612a51565b611cf9565b005b7fb09aa5aeb3702cfd50b6b62bc4532604938f21248a27a1d5ca736082b6819cc16108a7816108a2611e10565b611612565b806108b957506108b8816000611612565b5b6108f8576040517f08c379a00000000000000000000000000000000000000000000000000000000081526004016108ef90613bd9565b60405180910390fd5b60006109088989898989896112dc565b90506109148184611e18565b6000817f4cf4410cc57040e44862ef0f45f3dd5a5e02db8eb8add648d4b0e236f1d07dca8b8b8b8b8b8a60405161095096959493929190613a37565b60405180910390a3505050505050505050565b600560009054906101000a900473ffffffffffffffffffffffffffffffffffffffff1673ffffffffffffffffffffffffffffffffffffffff163373ffffffffffffffffffffffffffffffffffffffff16146109f3576040517f08c379a00000000000000000000000000000000000000000000000000000000081526004016109ea90613c99565b60405180910390fd5b60008173ffffffffffffffffffffffffffffffffffffffff166370a08231306040518263ffffffff1660e01b8152600401610a2e9190613913565b60206040518083038186803b158015610a4657600080fd5b505afa158015610a5a573d6000803e3d6000fd5b505050506040513d601f19601f82011682018060405250810190610a7e9190612e7a565b9050610acd600560009054906101000a900473ffffffffffffffffffffffffffffffffffffffff16828473ffffffffffffffffffffffffffffffffffffffff16611ed89092919063ffffffff16565b610b1a600560009054906101000a900473ffffffffffffffffffffffffffffffffffffffff16828473ffffffffffffffffffffffffffffffffffffffff166120009092919063ffffffff16565b5050565b7fd8aa0f3194971a2a116679f7c2090f6939c8d4e01a2a8d7e41d55e5351469e6381565b7f5f58e3a2316349923ce3780f8d587db2d72378aed66a8261c916544fa6846ca581565b600560009054906101000a900473ffffffffffffffffffffffffffffffffffffffff1681565b3073ffffffffffffffffffffffffffffffffffffffff163373ffffffffffffffffffffffffffffffffffffffff1614610bfa576040517f08c379a0000000000000000000000000000000000000000000000000000000008152600401610bf190613d79565b60405180910390fd5b600560009054906101000a900473ffffffffffffffffffffffffffffffffffffffff1673ffffffffffffffffffffffffffffffffffffffff163273ffffffffffffffffffffffffffffffffffffffff1614610c8a576040517f08c379a0000000000000000000000000000000000000000000000000000000008152600401610c8190613dd9565b60405180910390fd5b80600560006101000a81548173ffffffffffffffffffffffffffffffffffffffff021916908373ffffffffffffffffffffffffffffffffffffffff16021790555050565b7fd8aa0f3194971a2a116679f7c2090f6939c8d4e01a2a8d7e41d55e5351469e63610d0081610cfb611e10565b611612565b80610d125750610d11816000611612565b5b610d51576040517f08c379a0000000000000000000000000000000000000000000000000000000008152600401610d4890613bd9565b60405180910390fd5b60026001541415610d97576040517f08c379a0000000000000000000000000000000000000000000000000000000008152600401610d8e90613d59565b60405180910390fd5b60026001819055506000610daf8888888888886112dc565b9050610dba84612086565b610dc98160008a8a8a8a6120de565b610dd2816121d6565b506001808190555050505050505050565b600060016002600084815260200190815260200160002054118015610e1b575042600260008481526020019081526020016000205411155b9050919050565b600560009054906101000a900473ffffffffffffffffffffffffffffffffffffffff1673ffffffffffffffffffffffffffffffffffffffff163373ffffffffffffffffffffffffffffffffffffffff1614610eb2576040517f08c379a0000000000000000000000000000000000000000000000000000000008152600401610ea990613c99565b60405180910390fd5b6000600560009054906101000a900473ffffffffffffffffffffffffffffffffffffffff1673ffffffffffffffffffffffffffffffffffffffff166108fc479081150290604051600060405180830381858888f19350505050905080610f4d576040517f08c379a0000000000000000000000000000000000000000000000000000000008152600401610f4490613c59565b60405180910390fd5b600560009054906101000a900473ffffffffffffffffffffffffffffffffffffffff1673ffffffffffffffffffffffffffffffffffffffff166108fc479081150290604051600060405180830381858888f19350505050158015610fb5573d6000803e3d6000fd5b5050565b6000806000838152602001908152602001600020600201549050919050565b600060016002600084815260200190815260200160002054149050919050565b61101e60008084815260200190815260200160002060020154611019611e10565b611612565b61105d576040517f08c379a000000000000000000000000000000000000000000000000000000000815260040161105490613b99565b60405180910390fd5b611067828261223a565b5050565b611073611e10565b73ffffffffffffffffffffffffffffffffffffffff168173ffffffffffffffffffffffffffffffffffffffff16146110e0576040517f08c379a00000000000000000000000000000000000000000000000000000000081526004016110d790613d99565b60405180910390fd5b6110ea82826122cd565b5050565b7fd8aa0f3194971a2a116679f7c2090f6939c8d4e01a2a8d7e41d55e5351469e636111208161111b611e10565b611612565b806111325750611131816000611612565b5b611171576040517f08c379a000000000000000000000000000000000000000000000000000000000815260040161116890613bd9565b60405180910390fd5b8173ffffffffffffffffffffffffffffffffffffffff16633f4ba83a6040518163ffffffff1660e01b8152600401600060405180830381600087803b1580156111b957600080fd5b505af11580156111cd573d6000803e3d6000fd5b505050505050565b600060016002600084815260200190815260200160002054119050919050565b7fd8aa0f3194971a2a116679f7c2090f6939c8d4e01a2a8d7e41d55e5351469e6361122781611222611e10565b611612565b806112395750611238816000611612565b5b611278576040517f08c379a000000000000000000000000000000000000000000000000000000000815260040161126f90613bd9565b60405180910390fd5b8173ffffffffffffffffffffffffffffffffffffffff16638456cb596040518163ffffffff1660e01b8152600401600060405180830381600087803b1580156112c057600080fd5b505af11580156112d4573d6000803e3d6000fd5b505050505050565b60008686868686866040516020016112f9969594939291906139db565b6040516020818303038152906040528051906020012090509695505050505050565b60045481565b3073ffffffffffffffffffffffffffffffffffffffff163373ffffffffffffffffffffffffffffffffffffffff161461138f576040517f08c379a000000000000000000000000000000000000000000000000000000000815260040161138690613d79565b60405180910390fd5b7f11c24f4ead16507c69ac467fbd5e4eed5fb5c699626d2cc6d66421df253886d5600354826040516113c2929190613e14565b60405180910390a18060038190555050565b7fb09aa5aeb3702cfd50b6b62bc4532604938f21248a27a1d5ca736082b6819cc161140681611401611e10565b611612565b806114185750611417816000611612565b5b611457576040517f08c379a000000000000000000000000000000000000000000000000000000000815260040161144e90613bd9565b60405180910390fd5b878790508a8a90501461149f576040517f08c379a000000000000000000000000000000000000000000000000000000000815260040161149690613bb9565b60405180910390fd5b858590508a8a9050146114e7576040517f08c379a00000000000000000000000000000000000000000000000000000000081526004016114de90613bb9565b60405180910390fd5b60006114f98b8b8b8b8b8b8b8b611818565b90506115058184611e18565b60005b8b8b90508110156115af5780827f4cf4410cc57040e44862ef0f45f3dd5a5e02db8eb8add648d4b0e236f1d07dca8e8e8581811061154257fe5b90506020020160208101906115579190612a51565b8d8d8681811061156357fe5b905060200201358c8c8781811061157657fe5b90506020028101906115889190613e3d565b8c8b60405161159c96959493929190613a37565b60405180910390a3806001019050611508565b505050505050505050505050565b7fb09aa5aeb3702cfd50b6b62bc4532604938f21248a27a1d5ca736082b6819cc181565b600061160a8260008086815260200190815260200160002060000161236090919063ffffffff16565b905092915050565b600061163b8260008086815260200190815260200160002060000161237a90919063ffffffff16565b905092915050565b6000801b81565b7fd8aa0f3194971a2a116679f7c2090f6939c8d4e01a2a8d7e41d55e5351469e6361167c81611677611e10565b611612565b8061168e575061168d816000611612565b5b6116cd576040517f08c379a00000000000000000000000000000000000000000000000000000000081526004016116c490613bd9565b60405180910390fd5b8173ffffffffffffffffffffffffffffffffffffffff1663d5b091636040518163ffffffff1660e01b8152600401600060405180830381600087803b15801561171557600080fd5b505af1158015611729573d6000803e3d6000fd5b505050505050565b7fd8aa0f3194971a2a116679f7c2090f6939c8d4e01a2a8d7e41d55e5351469e636117638161175e611e10565b611612565b806117755750611774816000611612565b5b6117b4576040517f08c379a00000000000000000000000000000000000000000000000000000000081526004016117ab90613bd9565b60405180910390fd5b8173ffffffffffffffffffffffffffffffffffffffff166336e9332d6040518163ffffffff1660e01b8152600401600060405180830381600087803b1580156117fc57600080fd5b505af1158015611810573d6000803e3d6000fd5b505050505050565b60008888888888888888604051602001611839989796959493929190613a93565b60405160208183030381529060405280519060200120905098975050505050505050565b3073ffffffffffffffffffffffffffffffffffffffff163373ffffffffffffffffffffffffffffffffffffffff16146118cb576040517f08c379a00000000000000000000000000000000000000000000000000000000081526004016118c290613d79565b60405180910390fd5b7f596b3acad3954126f9cd5659152e0abf28f5e4c8ed617821eb7f7f4830b6bdda600454826040516118fe929190613e14565b60405180910390a18060048190555050565b7fb09aa5aeb3702cfd50b6b62bc4532604938f21248a27a1d5ca736082b6819cc16119428161193d611e10565b611612565b806119545750611953816000611612565b5b611993576040517f08c379a000000000000000000000000000000000000000000000000000000000815260040161198a90613bd9565b60405180910390fd5b61199c826111d5565b6119db576040517f08c379a00000000000000000000000000000000000000000000000000000000081526004016119d290613d19565b60405180910390fd5b6002600083815260200190815260200160002060009055817fbaa1eb22f2a492ba1a5fea61b8df4d27c6c8b5f3971e63bb58fa14ff72eedb7060405160405180910390a25050565b60035481565b6000611a486000808481526020019081526020016000206000016123aa565b9050919050565b600060026000838152602001908152602001600020549050919050565b611a9260008084815260200190815260200160002060020154611a8d611e10565b611612565b611ad1576040517f08c379a0000000000000000000000000000000000000000000000000000000008152600401611ac890613c39565b60405180910390fd5b611adb82826122cd565b5050565b7fd8aa0f3194971a2a116679f7c2090f6939c8d4e01a2a8d7e41d55e5351469e63611b1181611b0c611e10565b611612565b80611b235750611b22816000611612565b5b611b62576040517f08c379a0000000000000000000000000000000000000000000000000000000008152600401611b5990613bd9565b60405180910390fd5b60026001541415611ba8576040517f08c379a0000000000000000000000000000000000000000000000000000000008152600401611b9f90613d59565b60405180910390fd5b6002600181905550868690508989905014611bf8576040517f08c379a0000000000000000000000000000000000000000000000000000000008152600401611bef90613bb9565b60405180910390fd5b848490508989905014611c40576040517f08c379a0000000000000000000000000000000000000000000000000000000008152600401611c3790613bb9565b60405180910390fd5b6000611c528a8a8a8a8a8a8a8a611818565b9050611c5d84612086565b60005b8a8a9050811015611cd257611cc782828d8d85818110611c7c57fe5b9050602002016020810190611c919190612a51565b8c8c86818110611c9d57fe5b905060200201358b8b87818110611cb057fe5b9050602002810190611cc29190613e3d565b6120de565b806001019050611c60565b50611cdc816121d6565b5060018081905550505050505050505050565b6000600354905090565b7fd8aa0f3194971a2a116679f7c2090f6939c8d4e01a2a8d7e41d55e5351469e63611d2b81611d26611e10565b611612565b80611d3d5750611d3c816000611612565b5b611d7c576040517f08c379a0000000000000000000000000000000000000000000000000000000008152600401611d7390613bd9565b60405180910390fd5b8173ffffffffffffffffffffffffffffffffffffffff1663d389800f6040518163ffffffff1660e01b8152600401600060405180830381600087803b158015611dc457600080fd5b505af1158015611dd8573d6000803e3d6000fd5b505050505050565b6000611e08836000018373ffffffffffffffffffffffffffffffffffffffff1660001b6123bf565b905092915050565b600033905090565b6000600260008481526020019081526020016000205414611e6e576040517f08c379a0000000000000000000000000000000000000000000000000000000008152600401611e6590613cb9565b60405180910390fd5b600354811015611eb3576040517f08c379a0000000000000000000000000000000000000000000000000000000008152600401611eaa90613c79565b60405180910390fd5b611ebd428261242f565b60026000848152602001908152602001600020819055505050565b6000611f77828573ffffffffffffffffffffffffffffffffffffffff1663dd62ed3e30876040518363ffffffff1660e01b8152600401611f19929190613949565b60206040518083038186803b158015611f3157600080fd5b505afa158015611f45573d6000803e3d6000fd5b505050506040513d601f19601f82011682018060405250810190611f699190612e7a565b61242f90919063ffffffff16565b9050611ffa8463095ea7b360e01b8584604051602401611f98929190613972565b604051602081830303815290604052907bffffffffffffffffffffffffffffffffffffffffffffffffffffffff19166020820180517bffffffffffffffffffffffffffffffffffffffffffffffffffffffff8381831617835250505050612484565b50505050565b6120818363a9059cbb60e01b848460405160240161201f929190613972565b604051602081830303815290604052907bffffffffffffffffffffffffffffffffffffffffffffffffffffffff19166020820180517bffffffffffffffffffffffffffffffffffffffffffffffffffffffff8381831617835250505050612484565b505050565b6000801b81148061209c575061209b81610fd8565b5b6120db576040517f08c379a00000000000000000000000000000000000000000000000000000000081526004016120d290613b79565b60405180910390fd5b50565b60008473ffffffffffffffffffffffffffffffffffffffff168484846040516121089291906138c8565b60006040518083038185875af1925050503d8060008114612145576040519150601f19603f3d011682016040523d82523d6000602084013e61214a565b606091505b505090508061218e576040517f08c379a000000000000000000000000000000000000000000000000000000000815260040161218590613db9565b60405180910390fd5b85877fc2617efa69bab66782fa219543714338489c4e9e178271560a91b82c3f612b58878787876040516121c5949392919061399b565b60405180910390a350505050505050565b6121df81610de3565b61221e576040517f08c379a000000000000000000000000000000000000000000000000000000000815260040161221590613cd9565b60405180910390fd5b6001600260008381526020019081526020016000208190555050565b61226181600080858152602001908152602001600020600001611de090919063ffffffff16565b156122c95761226e611e10565b73ffffffffffffffffffffffffffffffffffffffff168173ffffffffffffffffffffffffffffffffffffffff16837f2f8788117e7eff1d82e926ec794901d17c78024a50270940304540a733656f0d60405160405180910390a45b5050565b6122f48160008085815260200190815260200160002060000161254b90919063ffffffff16565b1561235c57612301611e10565b73ffffffffffffffffffffffffffffffffffffffff168173ffffffffffffffffffffffffffffffffffffffff16837ff6391f5c32d9c69d2a47ea670b442974b53935d1edc7fd64eb21e047a839171b60405160405180910390a45b5050565b600061236f836000018361257b565b60001c905092915050565b60006123a2836000018373ffffffffffffffffffffffffffffffffffffffff1660001b6125e8565b905092915050565b60006123b88260000161260b565b9050919050565b60006123cb83836125e8565b612424578260000182908060018154018082558091505060019003906000526020600020016000909190919091505582600001805490508360010160008481526020019081526020016000208190555060019050612429565b600090505b92915050565b60008082840190508381101561247a576040517f08c379a000000000000000000000000000000000000000000000000000000000815260040161247190613bf9565b60405180910390fd5b8091505092915050565b60606124e6826040518060400160405280602081526020017f5361666545524332303a206c6f772d6c6576656c2063616c6c206661696c65648152508573ffffffffffffffffffffffffffffffffffffffff1661261c9092919063ffffffff16565b905060008151111561254657808060200190518101906125069190612d87565b612545576040517f08c379a000000000000000000000000000000000000000000000000000000000815260040161253c90613d39565b60405180910390fd5b5b505050565b6000612573836000018373ffffffffffffffffffffffffffffffffffffffff1660001b612634565b905092915050565b6000818360000180549050116125c6576040517f08c379a00000000000000000000000000000000000000000000000000000000081526004016125bd90613b59565b60405180910390fd5b8260000182815481106125d557fe5b9060005260206000200154905092915050565b600080836001016000848152602001908152602001600020541415905092915050565b600081600001805490509050919050565b606061262b848460008561271c565b90509392505050565b60008083600101600084815260200190815260200160002054905060008114612710576000600182039050600060018660000180549050039050600086600001828154811061267f57fe5b906000526020600020015490508087600001848154811061269c57fe5b90600052602060002001819055506001830187600101600083815260200190815260200160002081905550866000018054806126d457fe5b60019003818190600052602060002001600090559055866001016000878152602001908152602001600020600090556001945050505050612716565b60009150505b92915050565b606082471015612761576040517f08c379a000000000000000000000000000000000000000000000000000000000815260040161275890613c19565b60405180910390fd5b61276a85612831565b6127a9576040517f08c379a00000000000000000000000000000000000000000000000000000000081526004016127a090613cf9565b60405180910390fd5b600060608673ffffffffffffffffffffffffffffffffffffffff1685876040516127d391906138e1565b60006040518083038185875af1925050503d8060008114612810576040519150601f19603f3d011682016040523d82523d6000602084013e612815565b606091505b5091509150612825828286612844565b92505050949350505050565b600080823b905060008111915050919050565b60608315612854578290506128a4565b6000835111156128675782518084602001fd5b816040517f08c379a000000000000000000000000000000000000000000000000000000000815260040161289b9190613b37565b60405180910390fd5b9392505050565b6000813590506128ba816140a4565b92915050565b6000813590506128cf816140bb565b92915050565b60008083601f8401126128e757600080fd5b8235905067ffffffffffffffff81111561290057600080fd5b60208301915083602082028301111561291857600080fd5b9250929050565b60008083601f84011261293157600080fd5b8235905067ffffffffffffffff81111561294a57600080fd5b60208301915083602082028301111561296257600080fd5b9250929050565b60008083601f84011261297b57600080fd5b8235905067ffffffffffffffff81111561299457600080fd5b6020830191508360208202830111156129ac57600080fd5b9250929050565b6000815190506129c2816140d2565b92915050565b6000813590506129d7816140e9565b92915050565b60008083601f8401126129ef57600080fd5b8235905067ffffffffffffffff811115612a0857600080fd5b602083019150836001820283011115612a2057600080fd5b9250929050565b600081359050612a3681614100565b92915050565b600081519050612a4b81614100565b92915050565b600060208284031215612a6357600080fd5b6000612a71848285016128ab565b91505092915050565b600060208284031215612a8c57600080fd5b6000612a9a848285016128c0565b91505092915050565b60008060008060008060a08789031215612abc57600080fd5b6000612aca89828a016128ab565b9650506020612adb89828a01612a27565b955050604087013567ffffffffffffffff811115612af857600080fd5b612b0489828a016129dd565b94509450506060612b1789828a016129c8565b9250506080612b2889828a016129c8565b9150509295509295509295565b600080600080600080600060c0888a031215612b5057600080fd5b6000612b5e8a828b016128ab565b9750506020612b6f8a828b01612a27565b965050604088013567ffffffffffffffff811115612b8c57600080fd5b612b988a828b016129dd565b95509550506060612bab8a828b016129c8565b9350506080612bbc8a828b016129c8565b92505060a0612bcd8a828b01612a27565b91505092959891949750929550565b60008060008060008060008060a0898b031215612bf857600080fd5b600089013567ffffffffffffffff811115612c1257600080fd5b612c1e8b828c016128d5565b9850985050602089013567ffffffffffffffff811115612c3d57600080fd5b612c498b828c01612969565b9650965050604089013567ffffffffffffffff811115612c6857600080fd5b612c748b828c0161291f565b94509450506060612c878b828c016129c8565b9250506080612c988b828c016129c8565b9150509295985092959890939650565b600080600080600080600080600060c08a8c031215612cc657600080fd5b60008a013567ffffffffffffffff811115612ce057600080fd5b612cec8c828d016128d5565b995099505060208a013567ffffffffffffffff811115612d0b57600080fd5b612d178c828d01612969565b975097505060408a013567ffffffffffffffff811115612d3657600080fd5b612d428c828d0161291f565b95509550506060612d558c828d016129c8565b9350506080612d668c828d016129c8565b92505060a0612d778c828d01612a27565b9150509295985092959850929598565b600060208284031215612d9957600080fd5b6000612da7848285016129b3565b91505092915050565b600060208284031215612dc257600080fd5b6000612dd0848285016129c8565b91505092915050565b60008060408385031215612dec57600080fd5b6000612dfa858286016129c8565b9250506020612e0b858286016128ab565b9150509250929050565b60008060408385031215612e2857600080fd5b6000612e36858286016129c8565b9250506020612e4785828601612a27565b9150509250929050565b600060208284031215612e6357600080fd5b6000612e7184828501612a27565b91505092915050565b600060208284031215612e8c57600080fd5b6000612e9a84828501612a3c565b91505092915050565b6000612eaf8383612eef565b60208301905092915050565b6000612ec8848484613056565b90509392505050565b612eda8161401b565b82525050565b612ee981613fc9565b82525050565b612ef881613fb7565b82525050565b612f0781613fb7565b82525050565b6000612f198385613ed8565b9350612f2482613e94565b8060005b85811015612f5d57612f3a8284613f49565b612f448882612ea3565b9750612f4f83613ebe565b925050600181019050612f28565b5085925050509392505050565b6000612f768385613ee9565b935083602084028501612f8884613e9e565b8060005b87811015612fce578484038952612fa38284613f60565b612fae868284612ebb565b9550612fb984613ecb565b935060208b019a505050600181019050612f8c565b50829750879450505050509392505050565b6000612fec8385613efa565b93507f07ffffffffffffffffffffffffffffffffffffffffffffffffffffffffffffff83111561301b57600080fd5b60208302925061302c838584614051565b82840190509392505050565b61304181613fdb565b82525050565b61305081613fe7565b82525050565b60006130628385613f0b565b935061306f838584614051565b61307883614093565b840190509392505050565b600061308f8385613f1c565b935061309c838584614051565b6130a583614093565b840190509392505050565b60006130bc8385613f2d565b93506130c9838584614051565b82840190509392505050565b60006130e082613ea8565b6130ea8185613f2d565b93506130fa818560208601614060565b80840191505092915050565b600061311182613eb3565b61311b8185613f38565b935061312b818560208601614060565b61313481614093565b840191505092915050565b600061314c602283613f38565b91507f456e756d657261626c655365743a20696e646578206f7574206f6620626f756e60008301527f64730000000000000000000000000000000000000000000000000000000000006020830152604082019050919050565b60006131b2602683613f38565b91507f54696d656c6f636b436f6e74726f6c6c65723a206d697373696e67206465706560008301527f6e64656e637900000000000000000000000000000000000000000000000000006020830152604082019050919050565b6000613218602f83613f38565b91507f416363657373436f6e74726f6c3a2073656e646572206d75737420626520616e60008301527f2061646d696e20746f206772616e7400000000000000000000000000000000006020830152604082019050919050565b600061327e602383613f38565b91507f54696d656c6f636b436f6e74726f6c6c65723a206c656e677468206d69736d6160008301527f74636800000000000000000000000000000000000000000000000000000000006020830152604082019050919050565b60006132e4602e83613f38565b91507f54696d656c6f636b436f6e74726f6c6c65723a2073656e64657220726571756960008301527f726573207065726d697373696f6e0000000000000000000000000000000000006020830152604082019050919050565b600061334a601b83613f38565b91507f536166654d6174683a206164646974696f6e206f766572666c6f7700000000006000830152602082019050919050565b600061338a602683613f38565b91507f416464726573733a20696e73756666696369656e742062616c616e636520666f60008301527f722063616c6c00000000000000000000000000000000000000000000000000006020830152604082019050919050565b60006133f0603083613f38565b91507f416363657373436f6e74726f6c3a2073656e646572206d75737420626520616e60008301527f2061646d696e20746f207265766f6b65000000000000000000000000000000006020830152604082019050919050565b6000613456601783613f38565b91507f4661696c656420746f207769746864726177424e4228290000000000000000006000830152602082019050919050565b6000613496602683613f38565b91507f54696d656c6f636b436f6e74726f6c6c65723a20696e73756666696369656e7460008301527f2064656c617900000000000000000000000000000000000000000000000000006020830152604082019050919050565b60006134fc601183613f38565b91507f2164657657616c6c6574416464726573730000000000000000000000000000006000830152602082019050919050565b600061353c602f83613f38565b91507f54696d656c6f636b436f6e74726f6c6c65723a206f7065726174696f6e20616c60008301527f7265616479207363686564756c656400000000000000000000000000000000006020830152604082019050919050565b60006135a2602a83613f38565b91507f54696d656c6f636b436f6e74726f6c6c65723a206f7065726174696f6e20697360008301527f206e6f74207265616479000000000000000000000000000000000000000000006020830152604082019050919050565b6000613608601d83613f38565b91507f416464726573733a2063616c6c20746f206e6f6e2d636f6e74726163740000006000830152602082019050919050565b6000613648603183613f38565b91507f54696d656c6f636b436f6e74726f6c6c65723a206f7065726174696f6e20636160008301527f6e6e6f742062652063616e63656c6c65640000000000000000000000000000006020830152604082019050919050565b60006136ae602a83613f38565b91507f5361666545524332303a204552433230206f7065726174696f6e20646964206e60008301527f6f742073756363656564000000000000000000000000000000000000000000006020830152604082019050919050565b6000613714601f83613f38565b91507f5265656e7472616e637947756172643a207265656e7472616e742063616c6c006000830152602082019050919050565b6000613754602b83613f38565b91507f54696d656c6f636b436f6e74726f6c6c65723a2063616c6c6572206d7573742060008301527f62652074696d656c6f636b0000000000000000000000000000000000000000006020830152604082019050919050565b60006137ba602f83613f38565b91507f416363657373436f6e74726f6c3a2063616e206f6e6c792072656e6f756e636560008301527f20726f6c657320666f722073656c6600000000000000000000000000000000006020830152604082019050919050565b6000613820603383613f38565b91507f54696d656c6f636b436f6e74726f6c6c65723a20756e6465726c79696e67207460008301527f72616e73616374696f6e207265766572746564000000000000000000000000006020830152604082019050919050565b6000613886601d83613f38565b91507f74782e6f726967696e20213d2064657657616c6c6574416464726573730000006000830152602082019050919050565b6138c281614011565b82525050565b60006138d58284866130b0565b91508190509392505050565b60006138ed82846130d5565b915081905092915050565b600060208201905061390d6000830184612efe565b92915050565b60006020820190506139286000830184612ed1565b92915050565b60006020820190506139436000830184612ee0565b92915050565b600060408201905061395e6000830185612efe565b61396b6020830184612efe565b9392505050565b60006040820190506139876000830185612efe565b61399460208301846138b9565b9392505050565b60006060820190506139b06000830187612efe565b6139bd60208301866138b9565b81810360408301526139d0818486613083565b905095945050505050565b600060a0820190506139f06000830189612efe565b6139fd60208301886138b9565b8181036040830152613a10818688613083565b9050613a1f6060830185613047565b613a2c6080830184613047565b979650505050505050565b600060a082019050613a4c6000830189612efe565b613a5960208301886138b9565b8181036040830152613a6c818688613083565b9050613a7b6060830185613047565b613a8860808301846138b9565b979650505050505050565b600060a0820190508181036000830152613aae818a8c612f0d565b90508181036020830152613ac381888a612fe0565b90508181036040830152613ad8818688612f6a565b9050613ae76060830185613047565b613af46080830184613047565b9998505050505050505050565b6000602082019050613b166000830184613038565b92915050565b6000602082019050613b316000830184613047565b92915050565b60006020820190508181036000830152613b518184613106565b905092915050565b60006020820190508181036000830152613b728161313f565b9050919050565b60006020820190508181036000830152613b92816131a5565b9050919050565b60006020820190508181036000830152613bb28161320b565b9050919050565b60006020820190508181036000830152613bd281613271565b9050919050565b60006020820190508181036000830152613bf2816132d7565b9050919050565b60006020820190508181036000830152613c128161333d565b9050919050565b60006020820190508181036000830152613c328161337d565b9050919050565b60006020820190508181036000830152613c52816133e3565b9050919050565b60006020820190508181036000830152613c7281613449565b9050919050565b60006020820190508181036000830152613c9281613489565b9050919050565b60006020820190508181036000830152613cb2816134ef565b9050919050565b60006020820190508181036000830152613cd28161352f565b9050919050565b60006020820190508181036000830152613cf281613595565b9050919050565b60006020820190508181036000830152613d12816135fb565b9050919050565b60006020820190508181036000830152613d328161363b565b9050919050565b60006020820190508181036000830152613d52816136a1565b9050919050565b60006020820190508181036000830152613d7281613707565b9050919050565b60006020820190508181036000830152613d9281613747565b9050919050565b60006020820190508181036000830152613db2816137ad565b9050919050565b60006020820190508181036000830152613dd281613813565b9050919050565b60006020820190508181036000830152613df281613879565b9050919050565b6000602082019050613e0e60008301846138b9565b92915050565b6000604082019050613e2960008301856138b9565b613e3660208301846138b9565b9392505050565b60008083356001602003843603038112613e5657600080fd5b80840192508235915067ffffffffffffffff821115613e7457600080fd5b602083019250600182023603831315613e8c57600080fd5b509250929050565b6000819050919050565b6000819050919050565b600081519050919050565b600081519050919050565b6000602082019050919050565b6000602082019050919050565b600082825260208201905092915050565b600082825260208201905092915050565b600082825260208201905092915050565b600082825260208201905092915050565b600082825260208201905092915050565b600081905092915050565b600082825260208201905092915050565b6000613f5860208401846128ab565b905092915050565b60008083356001602003843603038112613f7957600080fd5b83810192508235915060208301925067ffffffffffffffff821115613f9d57600080fd5b600182023603841315613faf57600080fd5b509250929050565b6000613fc282613ff1565b9050919050565b6000613fd482613ff1565b9050919050565b60008115159050919050565b6000819050919050565b600073ffffffffffffffffffffffffffffffffffffffff82169050919050565b6000819050919050565b60006140268261402d565b9050919050565b60006140388261403f565b9050919050565b600061404a82613ff1565b9050919050565b82818337600083830152505050565b60005b8381101561407e578082015181840152602081019050614063565b8381111561408d576000848401525b50505050565b6000601f19601f8301169050919050565b6140ad81613fb7565b81146140b857600080fd5b50565b6140c481613fc9565b81146140cf57600080fd5b50565b6140db81613fdb565b81146140e657600080fd5b50565b6140f281613fe7565b81146140fd57600080fd5b50565b61410981614011565b811461411457600080fd5b5056fea2646970667358221220ead929ff2e5b33122cf391e5e65d82cef5e8eb428a8a837e6faee8a94151f55664736f6c634300060c0033",
  "immutableReferences": {},
  "source": "// SPDX-License-Identifier: MIT\n\npragma solidity 0.6.12;\n\npragma solidity >=0.6.9 <0.8.0;\npragma experimental ABIEncoderV2;\n\nimport \"./interfaces/IERC20.sol\";\nimport \"./libraries/SafeERC20.sol\";\nimport \"./helpers/AccessControl.sol\";\nimport \"./helpers/ReentrancyGuard.sol\";\n\n/**\n * @dev Strategy functions that do not require timelock or have a timelock less than the min timelock\n */\n // TODO - check to make sure functions below are correct\ninterface IStrategy {\n    // Main want token compounding function\n    function earn() external;\n\n    function farm() external;\n\n    function pause() external;\n\n    function unpause() external;\n\n    function wrapBNB() external; // Specifically for the Venus WBNB vault.\n}\n\n// import \"https://github.com/OpenZeppelin/openzeppelin-contracts/blob/master/contracts/access/TimelockController.sol\";\n/**\n * @dev Contract module which acts as a timelocked controller. When set as the\n * owner of an `Ownable` smart contract, it enforces a timelock on all\n * `onlyOwner` maintenance operations. This gives time for users of the\n * controlled contract to exit before a potentially dangerous maintenance\n * operation is applied.\n *\n * By default, this contract is self administered, meaning administration tasks\n * have to go through the timelock process. The proposer (resp executor) role\n * is in charge of proposing (resp executing) operations. A common use case is\n * to position this {TimelockController} as the owner of a smart contract, with\n * a multisig or a DAO as the sole proposer.\n *\n * _Available since v3.3._\n */\ncontract TimelockController is AccessControl, ReentrancyGuard {\n    using SafeERC20 for IERC20;\n\n    bytes32 public constant TIMELOCK_ADMIN_ROLE =\n        keccak256(\"TIMELOCK_ADMIN_ROLE\");\n    bytes32 public constant PROPOSER_ROLE = keccak256(\"PROPOSER_ROLE\");\n    bytes32 public constant EXECUTOR_ROLE = keccak256(\"EXECUTOR_ROLE\");\n    uint256 internal constant _DONE_TIMESTAMP = uint256(1);\n\n    mapping(bytes32 => uint256) private _timestamps;\n    uint256 public minDelay; // seconds - to be increased in production\n    uint256 public minDelayReduced; // seconds - to be increased in production\n\n    address payable public devWalletAddress;\n    /**\n     * @dev Emitted when a call is scheduled as part of operation `id`.\n     */\n    event CallScheduled(\n        bytes32 indexed id,\n        uint256 indexed index,\n        address target,\n        uint256 value,\n        bytes data,\n        bytes32 predecessor,\n        uint256 delay\n    );\n\n    /**\n     * @dev Emitted when a call is performed as part of operation `id`.\n     */\n    event CallExecuted(\n        bytes32 indexed id,\n        uint256 indexed index,\n        address target,\n        uint256 value,\n        bytes data\n    );\n\n    /**\n     * @dev Emitted when operation `id` is cancelled.\n     */\n    event Cancelled(bytes32 indexed id);\n\n    /**\n     * @dev Emitted when the minimum delay for future operations is modified.\n     */\n    event MinDelayChange(uint256 oldDuration, uint256 newDuration);\n\n    event MinDelayReducedChange(uint256 oldDuration, uint256 newDuration);\n\n    /**\n     * @dev Initializes the contract with a given `minDelay`.\n     */\n    constructor(\n        address payable _devWalletAddress,\n        uint256 _minDelay,\n        uint256 _minDelayReduced // address[] memory proposers, address[] memory executors\n    ) public {\n        devWalletAddress = _devWalletAddress;\n        minDelay = _minDelay;\n        minDelayReduced = _minDelayReduced;\n\n        _setRoleAdmin(TIMELOCK_ADMIN_ROLE, TIMELOCK_ADMIN_ROLE);\n        _setRoleAdmin(PROPOSER_ROLE, TIMELOCK_ADMIN_ROLE);\n        _setRoleAdmin(EXECUTOR_ROLE, TIMELOCK_ADMIN_ROLE);\n\n        // deployer + self administration\n        _setupRole(TIMELOCK_ADMIN_ROLE, _msgSender());\n        _setupRole(TIMELOCK_ADMIN_ROLE, address(this));\n\n        // register proposers\n        // for (uint256 i = 0; i < proposers.length; ++i) {\n        //     _setupRole(PROPOSER_ROLE, proposers[i]);\n        // }\n        _setupRole(PROPOSER_ROLE, devWalletAddress);\n\n        // // register executors\n        // for (uint256 i = 0; i < executors.length; ++i) {\n        //     _setupRole(EXECUTOR_ROLE, executors[i]);\n        // }\n        _setupRole(EXECUTOR_ROLE, devWalletAddress);\n\n        emit MinDelayChange(0, minDelay);\n    }\n\n    /**\n     * @dev Modifier to make a function callable only by a certain role. In\n     * addition to checking the sender's role, `address(0)` 's role is also\n     * considered. Granting a role to `address(0)` is equivalent to enabling\n     * this role for everyone.\n     */\n    modifier onlyRole(bytes32 role) {\n        require(\n            hasRole(role, _msgSender()) || hasRole(role, address(0)),\n            \"TimelockController: sender requires permission\"\n        );\n        _;\n    }\n\n    /**\n     * @dev Contract might receive/hold ETH as part of the maintenance process.\n     */\n    receive() external payable {}\n\n    /**\n     * @dev Returns whether an operation is pending or not.\n     */\n    function isOperationPending(bytes32 id) public view returns (bool pending) {\n        return _timestamps[id] > _DONE_TIMESTAMP;\n    }\n\n    /**\n     * @dev Returns whether an operation is ready or not.\n     */\n    function isOperationReady(bytes32 id) public view returns (bool ready) {\n        // solhint-disable-next-line not-rely-on-time\n        return\n            _timestamps[id] > _DONE_TIMESTAMP &&\n            _timestamps[id] <= block.timestamp;\n    }\n\n    /**\n     * @dev Returns whether an operation is done or not.\n     */\n    function isOperationDone(bytes32 id) public view returns (bool done) {\n        return _timestamps[id] == _DONE_TIMESTAMP;\n    }\n\n    /**\n     * @dev Returns the timestamp at with an operation becomes ready (0 for\n     * unset operations, 1 for done operations).\n     */\n    function getTimestamp(bytes32 id) public view returns (uint256 timestamp) {\n        return _timestamps[id];\n    }\n\n    /**\n     * @dev Returns the minimum delay for an operation to become valid.\n     *\n     * This value can be changed by executing an operation that calls `updateDelay`.\n     */\n    function getMinDelay() public view returns (uint256 duration) {\n        return minDelay;\n    }\n\n    /**\n     * @dev Returns the identifier of an operation containing a single\n     * transaction.\n     */\n    function hashOperation(\n        address target,\n        uint256 value,\n        bytes calldata data,\n        bytes32 predecessor,\n        bytes32 salt\n    ) public pure returns (bytes32 hash) {\n        return keccak256(abi.encode(target, value, data, predecessor, salt));\n    }\n\n    /**\n     * @dev Returns the identifier of an operation containing a batch of\n     * transactions.\n     */\n    function hashOperationBatch(\n        address[] calldata targets,\n        uint256[] calldata values,\n        bytes[] calldata datas,\n        bytes32 predecessor,\n        bytes32 salt\n    ) public pure returns (bytes32 hash) {\n        return keccak256(abi.encode(targets, values, datas, predecessor, salt));\n    }\n\n    /**\n     * @dev Schedule an operation containing a single transaction.\n     *\n     * Emits a {CallScheduled} event.\n     *\n     * Requirements:\n     *\n     * - the caller must have the 'proposer' role.\n     */\n    function schedule(\n        address target,\n        uint256 value,\n        bytes calldata data,\n        bytes32 predecessor,\n        bytes32 salt,\n        uint256 delay\n    ) public virtual onlyRole(PROPOSER_ROLE) {\n        bytes32 id = hashOperation(target, value, data, predecessor, salt);\n        _schedule(id, delay);\n        emit CallScheduled(id, 0, target, value, data, predecessor, delay);\n    }\n\n    /**\n     * @dev Schedule an operation containing a batch of transactions.\n     *\n     * Emits one {CallScheduled} event per transaction in the batch.\n     *\n     * Requirements:\n     *\n     * - the caller must have the 'proposer' role.\n     */\n    function scheduleBatch(\n        address[] calldata targets,\n        uint256[] calldata values,\n        bytes[] calldata datas,\n        bytes32 predecessor,\n        bytes32 salt,\n        uint256 delay\n    ) public virtual onlyRole(PROPOSER_ROLE) {\n        require(\n            targets.length == values.length,\n            \"TimelockController: length mismatch\"\n        );\n        require(\n            targets.length == datas.length,\n            \"TimelockController: length mismatch\"\n        );\n\n        bytes32 id =\n            hashOperationBatch(targets, values, datas, predecessor, salt);\n        _schedule(id, delay);\n        for (uint256 i = 0; i < targets.length; ++i) {\n            emit CallScheduled(\n                id,\n                i,\n                targets[i],\n                values[i],\n                datas[i],\n                predecessor,\n                delay\n            );\n        }\n    }\n\n    /**\n     * @dev Schedule an operation that is to becomes valid after a given delay.\n     */\n    function _schedule(bytes32 id, uint256 delay) private {\n        require(\n            _timestamps[id] == 0,\n            \"TimelockController: operation already scheduled\"\n        );\n        require(delay >= minDelay, \"TimelockController: insufficient delay\");\n        // solhint-disable-next-line not-rely-on-time\n        _timestamps[id] = SafeMath.add(block.timestamp, delay);\n    }\n\n    /**\n     * @dev Cancel an operation.\n     *\n     * Requirements:\n     *\n     * - the caller must have the 'proposer' role.\n     */\n    function cancel(bytes32 id) public virtual onlyRole(PROPOSER_ROLE) {\n        require(\n            isOperationPending(id),\n            \"TimelockController: operation cannot be cancelled\"\n        );\n        delete _timestamps[id];\n\n        emit Cancelled(id);\n    }\n\n    /**\n     * @dev Execute an (ready) operation containing a single transaction.\n     *\n     * Emits a {CallExecuted} event.\n     *\n     * Requirements:\n     *\n     * - the caller must have the 'executor' role.\n     */\n    function execute(\n        address target,\n        uint256 value,\n        bytes calldata data,\n        bytes32 predecessor,\n        bytes32 salt\n    ) public payable virtual onlyRole(EXECUTOR_ROLE) nonReentrant {\n        bytes32 id = hashOperation(target, value, data, predecessor, salt);\n        _beforeCall(predecessor);\n        _call(id, 0, target, value, data);\n        _afterCall(id);\n    }\n\n    /**\n     * @dev Execute an (ready) operation containing a batch of transactions.\n     *\n     * Emits one {CallExecuted} event per transaction in the batch.\n     *\n     * Requirements:\n     *\n     * - the caller must have the 'executor' role.\n     */\n    function executeBatch(\n        address[] calldata targets,\n        uint256[] calldata values,\n        bytes[] calldata datas,\n        bytes32 predecessor,\n        bytes32 salt\n    ) public payable virtual onlyRole(EXECUTOR_ROLE) nonReentrant {\n        require(\n            targets.length == values.length,\n            \"TimelockController: length mismatch\"\n        );\n        require(\n            targets.length == datas.length,\n            \"TimelockController: length mismatch\"\n        );\n\n        bytes32 id =\n            hashOperationBatch(targets, values, datas, predecessor, salt);\n        _beforeCall(predecessor);\n        for (uint256 i = 0; i < targets.length; ++i) {\n            _call(id, i, targets[i], values[i], datas[i]);\n        }\n        _afterCall(id);\n    }\n\n    /**\n     * @dev Checks before execution of an operation's calls.\n     */\n    function _beforeCall(bytes32 predecessor) private view {\n        require(\n            predecessor == bytes32(0) || isOperationDone(predecessor),\n            \"TimelockController: missing dependency\"\n        );\n    }\n\n    /**\n     * @dev Checks after execution of an operation's calls.\n     */\n    function _afterCall(bytes32 id) private {\n        require(\n            isOperationReady(id),\n            \"TimelockController: operation is not ready\"\n        );\n        _timestamps[id] = _DONE_TIMESTAMP;\n    }\n\n    /**\n     * @dev Execute an operation's call.\n     *\n     * Emits a {CallExecuted} event.\n     */\n    function _call(\n        bytes32 id,\n        uint256 index,\n        address target,\n        uint256 value,\n        bytes calldata data\n    ) private {\n        // solhint-disable-next-line avoid-low-level-calls\n        (bool success, ) = target.call{value: value}(data);\n        require(success, \"TimelockController: underlying transaction reverted\");\n\n        emit CallExecuted(id, index, target, value, data);\n    }\n\n    /**\n     * @dev Changes the minimum timelock duration for future operations.\n     *\n     * Emits a {MinDelayChange} event.\n     *\n     * Requirements:\n     *\n     * - the caller must be the timelock itself. This can only be achieved by scheduling and later executing\n     * an operation where the timelock is the target and the data is the ABI-encoded call to this function.\n     */\n    function updateMinDelay(uint256 newDelay) external virtual {\n        require(\n            msg.sender == address(this),\n            \"TimelockController: caller must be timelock\"\n        );\n        emit MinDelayChange(minDelay, newDelay);\n        minDelay = newDelay;\n    }\n\n    function updateMinDelayReduced(uint256 newDelay) external virtual {\n        require(\n            msg.sender == address(this),\n            \"TimelockController: caller must be timelock\"\n        );\n        emit MinDelayReducedChange(minDelayReduced, newDelay);\n        minDelayReduced = newDelay;\n    }\n\n    function setDevWalletAddress(address payable _devWalletAddress) public {\n        require(\n            msg.sender == address(this),\n            \"TimelockController: caller must be timelock\"\n        );\n        require(tx.origin == devWalletAddress, \"tx.origin != devWalletAddress\");\n        devWalletAddress = _devWalletAddress;\n    }\n\n    /**\n     * @dev No timelock functions\n     */\n    function withdrawBNB() public payable {\n        require(msg.sender == devWalletAddress, \"!devWalletAddress\");\n        bool sent = devWalletAddress.send(address(this).balance);\n        require(sent, \"Failed to withdrawBNB()\");\n        devWalletAddress.transfer(address(this).balance);\n    }\n\n    function withdrawBEP20(address _tokenAddress) public payable {\n        require(msg.sender == devWalletAddress, \"!devWalletAddress\");\n        uint256 tokenBal = IERC20(_tokenAddress).balanceOf(address(this));\n        IERC20(_tokenAddress).safeIncreaseAllowance(devWalletAddress, tokenBal);\n        IERC20(_tokenAddress).safeTransfer(devWalletAddress, tokenBal);\n    }\n\n    function earn(address _stratAddress) public onlyRole(EXECUTOR_ROLE) {\n        IStrategy(_stratAddress).earn();\n    }\n\n    function farm(address _stratAddress) public onlyRole(EXECUTOR_ROLE) {\n        IStrategy(_stratAddress).farm();\n    }\n\n    function pause(address _stratAddress) public onlyRole(EXECUTOR_ROLE) {\n        IStrategy(_stratAddress).pause();\n    }\n\n    function unpause(address _stratAddress) public onlyRole(EXECUTOR_ROLE) {\n        IStrategy(_stratAddress).unpause();\n    }\n\n    function wrapBNB(address _stratAddress) public onlyRole(EXECUTOR_ROLE) {\n        IStrategy(_stratAddress).wrapBNB();\n    }\n}\n",
  "sourcePath": "/Users/kristophm/workspace/crypto/zorro/zorro-truffle/contracts/ZorroTimelock.sol",
  "compiler": {
    "name": "solc",
    "version": "0.6.12+commit.27d51765.Emscripten.clang"
  },
  "schemaVersion": "3.4.0",
  "updatedAt": "2021-08-19T20:18:29.005Z",
  "devdoc": {
    "details": "Contract module which acts as a timelocked controller. When set as the owner of an `Ownable` smart contract, it enforces a timelock on all `onlyOwner` maintenance operations. This gives time for users of the controlled contract to exit before a potentially dangerous maintenance operation is applied. By default, this contract is self administered, meaning administration tasks have to go through the timelock process. The proposer (resp executor) role is in charge of proposing (resp executing) operations. A common use case is to position this {TimelockController} as the owner of a smart contract, with a multisig or a DAO as the sole proposer. _Available since v3.3._",
    "events": {
      "CallExecuted(bytes32,uint256,address,uint256,bytes)": {
        "details": "Emitted when a call is performed as part of operation `id`."
      },
      "CallScheduled(bytes32,uint256,address,uint256,bytes,bytes32,uint256)": {
        "details": "Emitted when a call is scheduled as part of operation `id`."
      },
      "Cancelled(bytes32)": {
        "details": "Emitted when operation `id` is cancelled."
      },
      "MinDelayChange(uint256,uint256)": {
        "details": "Emitted when the minimum delay for future operations is modified."
      }
    },
    "kind": "dev",
    "methods": {
      "cancel(bytes32)": {
        "details": "Cancel an operation. Requirements: - the caller must have the 'proposer' role."
      },
      "constructor": {
        "details": "Initializes the contract with a given `minDelay`."
      },
      "execute(address,uint256,bytes,bytes32,bytes32)": {
        "details": "Execute an (ready) operation containing a single transaction. Emits a {CallExecuted} event. Requirements: - the caller must have the 'executor' role."
      },
      "executeBatch(address[],uint256[],bytes[],bytes32,bytes32)": {
        "details": "Execute an (ready) operation containing a batch of transactions. Emits one {CallExecuted} event per transaction in the batch. Requirements: - the caller must have the 'executor' role."
      },
      "getMinDelay()": {
        "details": "Returns the minimum delay for an operation to become valid. This value can be changed by executing an operation that calls `updateDelay`."
      },
      "getRoleAdmin(bytes32)": {
        "details": "Returns the admin role that controls `role`. See {grantRole} and {revokeRole}. To change a role's admin, use {_setRoleAdmin}."
      },
      "getRoleMember(bytes32,uint256)": {
        "details": "Returns one of the accounts that have `role`. `index` must be a value between 0 and {getRoleMemberCount}, non-inclusive. Role bearers are not sorted in any particular way, and their ordering may change at any point. WARNING: When using {getRoleMember} and {getRoleMemberCount}, make sure you perform all queries on the same block. See the following https://forum.openzeppelin.com/t/iterating-over-elements-on-enumerableset-in-openzeppelin-contracts/2296[forum post] for more information."
      },
      "getRoleMemberCount(bytes32)": {
        "details": "Returns the number of accounts that have `role`. Can be used together with {getRoleMember} to enumerate all bearers of a role."
      },
      "getTimestamp(bytes32)": {
        "details": "Returns the timestamp at with an operation becomes ready (0 for unset operations, 1 for done operations)."
      },
      "grantRole(bytes32,address)": {
        "details": "Grants `role` to `account`. If `account` had not been already granted `role`, emits a {RoleGranted} event. Requirements: - the caller must have ``role``'s admin role."
      },
      "hasRole(bytes32,address)": {
        "details": "Returns `true` if `account` has been granted `role`."
      },
      "hashOperation(address,uint256,bytes,bytes32,bytes32)": {
        "details": "Returns the identifier of an operation containing a single transaction."
      },
      "hashOperationBatch(address[],uint256[],bytes[],bytes32,bytes32)": {
        "details": "Returns the identifier of an operation containing a batch of transactions."
      },
      "isOperationDone(bytes32)": {
        "details": "Returns whether an operation is done or not."
      },
      "isOperationPending(bytes32)": {
        "details": "Returns whether an operation is pending or not."
      },
      "isOperationReady(bytes32)": {
        "details": "Returns whether an operation is ready or not."
      },
      "renounceRole(bytes32,address)": {
        "details": "Revokes `role` from the calling account. Roles are often managed via {grantRole} and {revokeRole}: this function's purpose is to provide a mechanism for accounts to lose their privileges if they are compromised (such as when a trusted device is misplaced). If the calling account had been granted `role`, emits a {RoleRevoked} event. Requirements: - the caller must be `account`."
      },
      "revokeRole(bytes32,address)": {
        "details": "Revokes `role` from `account`. If `account` had been granted `role`, emits a {RoleRevoked} event. Requirements: - the caller must have ``role``'s admin role."
      },
      "schedule(address,uint256,bytes,bytes32,bytes32,uint256)": {
        "details": "Schedule an operation containing a single transaction. Emits a {CallScheduled} event. Requirements: - the caller must have the 'proposer' role."
      },
      "scheduleBatch(address[],uint256[],bytes[],bytes32,bytes32,uint256)": {
        "details": "Schedule an operation containing a batch of transactions. Emits one {CallScheduled} event per transaction in the batch. Requirements: - the caller must have the 'proposer' role."
      },
      "updateMinDelay(uint256)": {
        "details": "Changes the minimum timelock duration for future operations. Emits a {MinDelayChange} event. Requirements: - the caller must be the timelock itself. This can only be achieved by scheduling and later executing an operation where the timelock is the target and the data is the ABI-encoded call to this function."
      },
      "withdrawBNB()": {
        "details": "No timelock functions"
      }
    },
    "version": 1
  },
  "userdoc": {
    "kind": "user",
    "methods": {},
    "version": 1
  }
}