{
  "contractName": "ZorroStrategy",
  "abi": [
    {
      "inputs": [],
      "stateMutability": "nonpayable",
      "type": "constructor"
    },
    {
      "anonymous": false,
      "inputs": [
        {
          "indexed": false,
          "internalType": "string",
          "name": "strategy",
          "type": "string"
        },
        {
          "indexed": false,
          "internalType": "address",
          "name": "contractAddress",
          "type": "address"
        },
        {
          "indexed": false,
          "internalType": "uint256",
          "name": "numContractsInStrategy",
          "type": "uint256"
        }
      ],
      "name": "AddedContract",
      "type": "event"
    },
    {
      "anonymous": false,
      "inputs": [
        {
          "indexed": false,
          "internalType": "string",
          "name": "strategy",
          "type": "string"
        },
        {
          "indexed": false,
          "internalType": "uint256",
          "name": "amountTotal",
          "type": "uint256"
        },
        {
          "indexed": false,
          "internalType": "uint256",
          "name": "liquidityEarned",
          "type": "uint256"
        }
      ],
      "name": "AddedLiquidity",
      "type": "event"
    },
    {
      "anonymous": false,
      "inputs": [
        {
          "indexed": false,
          "internalType": "string",
          "name": "strategy",
          "type": "string"
        },
        {
          "indexed": false,
          "internalType": "address",
          "name": "contractAddress",
          "type": "address"
        },
        {
          "indexed": false,
          "internalType": "uint256",
          "name": "numContractsInStrategy",
          "type": "uint256"
        }
      ],
      "name": "RemovedContract",
      "type": "event"
    },
    {
      "stateMutability": "payable",
      "type": "fallback"
    },
    {
      "inputs": [],
      "name": "compoundingFrequencyDays",
      "outputs": [
        {
          "internalType": "uint16",
          "name": "",
          "type": "uint16"
        }
      ],
      "stateMutability": "view",
      "type": "function"
    },
    {
      "inputs": [
        {
          "internalType": "address",
          "name": "",
          "type": "address"
        }
      ],
      "name": "lastFeeTakenAmount",
      "outputs": [
        {
          "internalType": "uint256",
          "name": "",
          "type": "uint256"
        }
      ],
      "stateMutability": "view",
      "type": "function"
    },
    {
      "inputs": [
        {
          "internalType": "address",
          "name": "",
          "type": "address"
        }
      ],
      "name": "lastFeeTakenAt",
      "outputs": [
        {
          "internalType": "uint64",
          "name": "",
          "type": "uint64"
        }
      ],
      "stateMutability": "view",
      "type": "function"
    },
    {
      "inputs": [
        {
          "internalType": "address",
          "name": "",
          "type": "address"
        }
      ],
      "name": "lastProfitAmountPreFees",
      "outputs": [
        {
          "internalType": "uint256",
          "name": "",
          "type": "uint256"
        }
      ],
      "stateMutability": "view",
      "type": "function"
    },
    {
      "inputs": [
        {
          "internalType": "address",
          "name": "",
          "type": "address"
        }
      ],
      "name": "liquidityTokenLedger",
      "outputs": [
        {
          "internalType": "uint256",
          "name": "",
          "type": "uint256"
        }
      ],
      "stateMutability": "view",
      "type": "function"
    },
    {
      "inputs": [
        {
          "internalType": "string",
          "name": "",
          "type": "string"
        },
        {
          "internalType": "uint256",
          "name": "",
          "type": "uint256"
        }
      ],
      "name": "lpContracts",
      "outputs": [
        {
          "internalType": "address",
          "name": "ammContractAddress",
          "type": "address"
        },
        {
          "internalType": "address",
          "name": "tokenA",
          "type": "address"
        },
        {
          "internalType": "address",
          "name": "tokenB",
          "type": "address"
        }
      ],
      "stateMutability": "view",
      "type": "function"
    },
    {
      "inputs": [],
      "name": "performanceFeePercent",
      "outputs": [
        {
          "internalType": "uint8",
          "name": "",
          "type": "uint8"
        }
      ],
      "stateMutability": "view",
      "type": "function"
    },
    {
      "inputs": [
        {
          "internalType": "string",
          "name": "strategy",
          "type": "string"
        }
      ],
      "name": "invest",
      "outputs": [],
      "stateMutability": "payable",
      "type": "function"
    },
    {
      "inputs": [],
      "name": "withdraw",
      "outputs": [],
      "stateMutability": "nonpayable",
      "type": "function"
    },
    {
      "inputs": [],
      "name": "takeProfit",
      "outputs": [],
      "stateMutability": "nonpayable",
      "type": "function"
    },
    {
      "inputs": [
        {
          "internalType": "uint16",
          "name": "minElapsedDays",
          "type": "uint16"
        }
      ],
      "name": "setCompoundingFrequency",
      "outputs": [],
      "stateMutability": "nonpayable",
      "type": "function"
    },
    {
      "inputs": [
        {
          "internalType": "uint8",
          "name": "feePct",
          "type": "uint8"
        }
      ],
      "name": "setZorroPerformanceFeePercent",
      "outputs": [],
      "stateMutability": "nonpayable",
      "type": "function"
    },
    {
      "inputs": [
        {
          "internalType": "address",
          "name": "newOwner",
          "type": "address"
        }
      ],
      "name": "changeOwner",
      "outputs": [],
      "stateMutability": "nonpayable",
      "type": "function"
    },
    {
      "inputs": [
        {
          "internalType": "uint256",
          "name": "reserveAmount",
          "type": "uint256"
        }
      ],
      "name": "setFeesReserve",
      "outputs": [],
      "stateMutability": "nonpayable",
      "type": "function"
    },
    {
      "inputs": [
        {
          "internalType": "address",
          "name": "contractAddress",
          "type": "address"
        },
        {
          "internalType": "string",
          "name": "strategy",
          "type": "string"
        },
        {
          "internalType": "address",
          "name": "tokenA",
          "type": "address"
        },
        {
          "internalType": "address",
          "name": "tokenB",
          "type": "address"
        },
        {
          "internalType": "address",
          "name": "priceFeedA1",
          "type": "address"
        },
        {
          "internalType": "address",
          "name": "priceFeedA2",
          "type": "address"
        },
        {
          "internalType": "address",
          "name": "priceFeedB1",
          "type": "address"
        },
        {
          "internalType": "address",
          "name": "priceFeedB2",
          "type": "address"
        },
        {
          "internalType": "uint8",
          "name": "priceCalculationMethod",
          "type": "uint8"
        }
      ],
      "name": "addLPContractToStrategy",
      "outputs": [],
      "stateMutability": "nonpayable",
      "type": "function"
    },
    {
      "inputs": [
        {
          "internalType": "address",
          "name": "contractAddress",
          "type": "address"
        },
        {
          "internalType": "string",
          "name": "strategy",
          "type": "string"
        }
      ],
      "name": "removeLPContractFromStrategy",
      "outputs": [],
      "stateMutability": "nonpayable",
      "type": "function"
    }
  ],
  "bytecode": "0x60806040527310ed43c718714eb63d5aa57b78b54704e256024e6000806101000a81548173ffffffffffffffffffffffffffffffffffffffff021916908373ffffffffffffffffffffffffffffffffffffffff160217905550738ac76a51cc950d9822d68b83fe1ad97b32cd580d600160006101000a81548173ffffffffffffffffffffffffffffffffffffffff021916908373ffffffffffffffffffffffffffffffffffffffff160217905550730567f2323251f0aab15c8dfb1967e4e8a7d42aee600560006101000a81548173ffffffffffffffffffffffffffffffffffffffff021916908373ffffffffffffffffffffffffffffffffffffffff1602179055506001600760036101000a81548160ff021916908360ff160217905550663ff2e795f5000060085534801561013557600080fd5b5033600260006101000a81548173ffffffffffffffffffffffffffffffffffffffff021916908373ffffffffffffffffffffffffffffffffffffffff160217905550601e600760026101000a81548160ff021916908360ff160217905550601e600760006101000a81548161ffff021916908361ffff160217905550600360405180807f737461626c65636f696e00000000000000000000000000000000000000000000815250600a0190509081526020016040518091039020604051806060016040528073ec6557348085aa57c72514d67070dc863c0a5a8c73ffffffffffffffffffffffffffffffffffffffff1681526020017355d398326f99059ff775485246999027b319795573ffffffffffffffffffffffffffffffffffffffff168152602001738ac76a51cc950d9822d68b83fe1ad97b32cd580d73ffffffffffffffffffffffffffffffffffffffff16815250908060018154018082558091505060019003906000526020600020906003020160009091909190915060008201518160000160006101000a81548173ffffffffffffffffffffffffffffffffffffffff021916908373ffffffffffffffffffffffffffffffffffffffff16021790555060208201518160010160006101000a81548173ffffffffffffffffffffffffffffffffffffffff021916908373ffffffffffffffffffffffffffffffffffffffff16021790555060408201518160020160006101000a81548173ffffffffffffffffffffffffffffffffffffffff021916908373ffffffffffffffffffffffffffffffffffffffff1602179055505050604051806080016040528073b97ad0e74fa7d920791e90258a6e2085088b432073ffffffffffffffffffffffffffffffffffffffff1681526020017351597f405303c4377e36123cbc172b13269ea16373ffffffffffffffffffffffffffffffffffffffff1681526020016000600381111561040057fe5b600381111561040b57fe5b815260200160011515815250600460007355d398326f99059ff775485246999027b319795573ffffffffffffffffffffffffffffffffffffffff1673ffffffffffffffffffffffffffffffffffffffff16815260200190815260200160002060008201518160000160006101000a81548173ffffffffffffffffffffffffffffffffffffffff021916908373ffffffffffffffffffffffffffffffffffffffff16021790555060208201518160010160006101000a81548173ffffffffffffffffffffffffffffffffffffffff021916908373ffffffffffffffffffffffffffffffffffffffff16021790555060408201518160010160146101000a81548160ff0219169083600381111561051c57fe5b021790555060608201518160010160156101000a81548160ff0219169083151502179055509050506130f980620005546000396000f3fe6080604052600436106100f75760003560e01c806354f2e8311161008a578063a6f9dae111610059578063a6f9dae1146106b9578063dc48fc371461070a578063e07f854c1461076f578063e11337ca146107a2576100f8565b806354f2e8311461055f57806370c10578146105c4578063974be0ee146105db5780639b0abd3c14610654576100f8565b8063357a8330116100c6578063357a8330146103645780633a3b562a146103a35780633ccfd60b1461051757806348f5b9801461052e576100f8565b8063048764cd146100fa5780630a8b7826146102725780630ac0ac8b146102eb5780630b26272614610329576100f8565b5b005b34801561010657600080fd5b506101ca6004803603604081101561011d57600080fd5b810190808035906020019064010000000081111561013a57600080fd5b82018360208201111561014c57600080fd5b8035906020019184600183028401116401000000008311171561016e57600080fd5b91908080601f016020809104026020016040519081016040528093929190818152602001838380828437600081840152601f19601f82011690508083019250505050505050919291929080359060200190929190505050610848565b604051808473ffffffffffffffffffffffffffffffffffffffff1673ffffffffffffffffffffffffffffffffffffffff1681526020018373ffffffffffffffffffffffffffffffffffffffff1673ffffffffffffffffffffffffffffffffffffffff1681526020018273ffffffffffffffffffffffffffffffffffffffff1673ffffffffffffffffffffffffffffffffffffffff168152602001935050505060405180910390f35b6102e96004803603602081101561028857600080fd5b81019080803590602001906401000000008111156102a557600080fd5b8201836020820111156102b757600080fd5b803590602001918460018302840111640100000000831117156102d957600080fd5b9091929391929390505050610902565b005b3480156102f757600080fd5b506103276004803603602081101561030e57600080fd5b81019080803560ff169060200190929190505050611a79565b005b34801561033557600080fd5b506103626004803603602081101561034c57600080fd5b8101908080359060200190929190505050611baa565b005b34801561037057600080fd5b506103a16004803603602081101561038757600080fd5b81019080803561ffff169060200190929190505050611c5a565b005b3480156103af57600080fd5b5061051560048036036101208110156103c757600080fd5b81019080803573ffffffffffffffffffffffffffffffffffffffff1690602001909291908035906020019064010000000081111561040457600080fd5b82018360208201111561041657600080fd5b8035906020019184600183028401116401000000008311171561043857600080fd5b9091929391929390803573ffffffffffffffffffffffffffffffffffffffff169060200190929190803573ffffffffffffffffffffffffffffffffffffffff169060200190929190803573ffffffffffffffffffffffffffffffffffffffff169060200190929190803573ffffffffffffffffffffffffffffffffffffffff169060200190929190803573ffffffffffffffffffffffffffffffffffffffff169060200190929190803573ffffffffffffffffffffffffffffffffffffffff169060200190929190803560ff169060200190929190505050611d20565b005b34801561052357600080fd5b5061052c61218d565b005b34801561053a57600080fd5b5061054361218f565b604051808260ff1660ff16815260200191505060405180910390f35b34801561056b57600080fd5b506105ae6004803603602081101561058257600080fd5b81019080803573ffffffffffffffffffffffffffffffffffffffff1690602001909291905050506121a2565b6040518082815260200191505060405180910390f35b3480156105d057600080fd5b506105d96121ba565b005b3480156105e757600080fd5b5061062a600480360360208110156105fe57600080fd5b81019080803573ffffffffffffffffffffffffffffffffffffffff1690602001909291905050506122e5565b604051808267ffffffffffffffff1667ffffffffffffffff16815260200191505060405180910390f35b34801561066057600080fd5b506106a36004803603602081101561067757600080fd5b81019080803573ffffffffffffffffffffffffffffffffffffffff16906020019092919050505061230c565b6040518082815260200191505060405180910390f35b3480156106c557600080fd5b50610708600480360360208110156106dc57600080fd5b81019080803573ffffffffffffffffffffffffffffffffffffffff169060200190929190505050612324565b005b34801561071657600080fd5b506107596004803603602081101561072d57600080fd5b81019080803573ffffffffffffffffffffffffffffffffffffffff16906020019092919050505061240e565b6040518082815260200191505060405180910390f35b34801561077b57600080fd5b50610784612426565b604051808261ffff1661ffff16815260200191505060405180910390f35b3480156107ae57600080fd5b50610846600480360360408110156107c557600080fd5b81019080803573ffffffffffffffffffffffffffffffffffffffff1690602001909291908035906020019064010000000081111561080257600080fd5b82018360208201111561081457600080fd5b8035906020019184600183028401116401000000008311171561083657600080fd5b909192939192939050505061243a565b005b600382805160208101820180518482526020830160208501208183528095505050505050818154811061087757fe5b9060005260206000209060030201600091509150508060000160009054906101000a900473ffffffffffffffffffffffffffffffffffffffff16908060010160009054906101000a900473ffffffffffffffffffffffffffffffffffffffff16908060020160009054906101000a900473ffffffffffffffffffffffffffffffffffffffff16905083565b600034905060006008548203905060003411610969576040517f08c379a000000000000000000000000000000000000000000000000000000000815260040180806020018281038252602881526020018061302d6028913960400191505060405180910390fd5b6060600385856040518083838082843780830192505050925050509081526020016040518091039020805480602002602001604051908101604052809291908181526020016000905b82821015610ae657838290600052602060002090600302016040518060600160405290816000820160009054906101000a900473ffffffffffffffffffffffffffffffffffffffff1673ffffffffffffffffffffffffffffffffffffffff1673ffffffffffffffffffffffffffffffffffffffff1681526020016001820160009054906101000a900473ffffffffffffffffffffffffffffffffffffffff1673ffffffffffffffffffffffffffffffffffffffff1673ffffffffffffffffffffffffffffffffffffffff1681526020016002820160009054906101000a900473ffffffffffffffffffffffffffffffffffffffff1673ffffffffffffffffffffffffffffffffffffffff1673ffffffffffffffffffffffffffffffffffffffff1681525050815260200190600101906109b2565b505050509050600081519050606060028202604051908082528060200260200182016040528015610b265781602001602082028036833780820191505090505b509050606060028302604051908082528060200260200182016040528015610b5d5781602001602082028036833780820191505090505b5090506000610b8d600560009054906101000a900473ffffffffffffffffffffffffffffffffffffffff1661296b565b90506000600285028781610b9d57fe5b04905060008090505b858161ffff161015610e9257610bba612ce5565b878261ffff1681518110610bca57fe5b6020026020010151905060007fffffffffffffffffffffffffffffffffffffffffffffffffffffffffffffffff905060007fffffffffffffffffffffffffffffffffffffffffffffffffffffffffffffffff905060008090505b88518161ffff161015610ce957836020015173ffffffffffffffffffffffffffffffffffffffff16898261ffff1681518110610c5c57fe5b602002602001015173ffffffffffffffffffffffffffffffffffffffff161415610c8857809250610cdc565b836040015173ffffffffffffffffffffffffffffffffffffffff16898261ffff1681518110610cb357fe5b602002602001015173ffffffffffffffffffffffffffffffffffffffff161415610cdb578091505b5b8080600101915050610c24565b5060007fffffffffffffffffffffffffffffffffffffffffffffffffffffffffffffffff905060007fffffffffffffffffffffffffffffffffffffffffffffffffffffffffffffffff905060008460010b12610d675786898561ffff1681518110610d5057fe5b602002602001018181510191508181525050610dda565b84602001518a6001840161ffff1681518110610d7f57fe5b602002602001019073ffffffffffffffffffffffffffffffffffffffff16908173ffffffffffffffffffffffffffffffffffffffff168152505086896001840161ffff1681518110610dcd57fe5b6020026020010181815250505b60008360010b12610e0d5786898461ffff1681518110610df657fe5b602002602001018181510191508181525050610e80565b84604001518a6001830161ffff1681518110610e2557fe5b602002602001019073ffffffffffffffffffffffffffffffffffffffff16908173ffffffffffffffffffffffffffffffffffffffff168152505086896001830161ffff1681518110610e7357fe5b6020026020010181815250505b50505050508080600101915050610ba6565b5060008090505b84518161ffff161015611516576000858261ffff1681518110610eb857fe5b60200260200101519050600160009054906101000a900473ffffffffffffffffffffffffffffffffffffffff1673ffffffffffffffffffffffffffffffffffffffff168173ffffffffffffffffffffffffffffffffffffffff161415610f1e5750611509565b6000858361ffff1681518110610f3057fe5b60200260200101519050610f42612d48565b600460008473ffffffffffffffffffffffffffffffffffffffff1673ffffffffffffffffffffffffffffffffffffffff1681526020019081526020016000206040518060800160405290816000820160009054906101000a900473ffffffffffffffffffffffffffffffffffffffff1673ffffffffffffffffffffffffffffffffffffffff1673ffffffffffffffffffffffffffffffffffffffff1681526020016001820160009054906101000a900473ffffffffffffffffffffffffffffffffffffffff1673ffffffffffffffffffffffffffffffffffffffff1673ffffffffffffffffffffffffffffffffffffffff1681526020016001820160149054906101000a900460ff16600381111561105657fe5b600381111561106157fe5b81526020016001820160159054906101000a900460ff1615151515815250509050600061108d82612a34565b905060008784029050600160009054906101000a900473ffffffffffffffffffffffffffffffffffffffff1673ffffffffffffffffffffffffffffffffffffffff1663095ea7b36000809054906101000a900473ffffffffffffffffffffffffffffffffffffffff16836040518363ffffffff1660e01b8152600401808373ffffffffffffffffffffffffffffffffffffffff1673ffffffffffffffffffffffffffffffffffffffff16815260200182815260200192505050602060405180830381600087803b15801561116057600080fd5b505af1158015611174573d6000803e3d6000fd5b505050506040513d602081101561118a57600080fd5b810190808051906020019092919050505061120d576040517f08c379a00000000000000000000000000000000000000000000000000000000081526004018080602001828103825260198152602001807f417070726f76616c20627920726f75746572206661696c65640000000000000081525060200191505060405180910390fd5b6060600260405190808252806020026020018201604052801561123f5781602001602082028036833780820191505090505b509050600160009054906101000a900473ffffffffffffffffffffffffffffffffffffffff168160008151811061127257fe5b602002602001019073ffffffffffffffffffffffffffffffffffffffff16908173ffffffffffffffffffffffffffffffffffffffff168152505085816001815181106112ba57fe5b602002602001019073ffffffffffffffffffffffffffffffffffffffff16908173ffffffffffffffffffffffffffffffffffffffff168152505060006064600760039054906101000a900460ff1660640360ff168161131557fe5b0460ff1684848161132257fe5b0402905060606000809054906101000a900473ffffffffffffffffffffffffffffffffffffffff1673ffffffffffffffffffffffffffffffffffffffff166338ed173985848633426040518663ffffffff1660e01b815260040180868152602001858152602001806020018473ffffffffffffffffffffffffffffffffffffffff1673ffffffffffffffffffffffffffffffffffffffff168152602001838152602001828103825285818151815260200191508051906020019060200280838360005b838110156114005780820151818401526020810190506113e5565b505050509050019650505050505050600060405180830381600087803b15801561142957600080fd5b505af115801561143d573d6000803e3d6000fd5b505050506040513d6000823e3d601f19601f82011682018060405250602081101561146757600080fd5b810190808051604051939291908464010000000082111561148757600080fd5b8382019150602082018581111561149d57600080fd5b82518660208202830111640100000000821117156114ba57600080fd5b8083526020830192505050908051906020019060200280838360005b838110156114f15780820151818401526020810190506114d6565b50505050905001604052505050905050505050505050505b8080600101915050610e99565b5060008090505b86518161ffff161015611a6c57611532612ce5565b878261ffff168151811061154257fe5b60200260200101519050611554612d48565b60046000836020015173ffffffffffffffffffffffffffffffffffffffff1673ffffffffffffffffffffffffffffffffffffffff1681526020019081526020016000206040518060800160405290816000820160009054906101000a900473ffffffffffffffffffffffffffffffffffffffff1673ffffffffffffffffffffffffffffffffffffffff1673ffffffffffffffffffffffffffffffffffffffff1681526020016001820160009054906101000a900473ffffffffffffffffffffffffffffffffffffffff1673ffffffffffffffffffffffffffffffffffffffff1673ffffffffffffffffffffffffffffffffffffffff1681526020016001820160149054906101000a900460ff16600381111561166c57fe5b600381111561167757fe5b81526020016001820160159054906101000a900460ff16151515158152505090506116a0612d48565b60046000846040015173ffffffffffffffffffffffffffffffffffffffff1673ffffffffffffffffffffffffffffffffffffffff1681526020019081526020016000206040518060800160405290816000820160009054906101000a900473ffffffffffffffffffffffffffffffffffffffff1673ffffffffffffffffffffffffffffffffffffffff1673ffffffffffffffffffffffffffffffffffffffff1681526020016001820160009054906101000a900473ffffffffffffffffffffffffffffffffffffffff1673ffffffffffffffffffffffffffffffffffffffff1673ffffffffffffffffffffffffffffffffffffffff1681526020016001820160149054906101000a900460ff1660038111156117b857fe5b60038111156117c357fe5b81526020016001820160159054906101000a900460ff161515151581525050905060006117ef83612a34565b905060006117fc83612a34565b905060008888029050600083828161181057fe5b049050600083838161181e57fe5b0490506000826064600760039054906101000a900460ff1660640360ff168161184357fe5b0460ff160290506000826064600760039054906101000a900460ff1660640360ff168161186c57fe5b0460ff1602905060008060008060009054906101000a900473ffffffffffffffffffffffffffffffffffffffff1673ffffffffffffffffffffffffffffffffffffffff1663e8e337008e602001518f604001518a8a8a8a30426040518963ffffffff1660e01b8152600401808973ffffffffffffffffffffffffffffffffffffffff1673ffffffffffffffffffffffffffffffffffffffff1681526020018873ffffffffffffffffffffffffffffffffffffffff1673ffffffffffffffffffffffffffffffffffffffff1681526020018781526020018681526020018581526020018481526020018373ffffffffffffffffffffffffffffffffffffffff1673ffffffffffffffffffffffffffffffffffffffff16815260200182815260200198505050505050505050606060405180830381600087803b1580156119b057600080fd5b505af11580156119c4573d6000803e3d6000fd5b505050506040513d60608110156119da57600080fd5b8101908080519060200190929190805190602001909291908051906020019092919050505092509250925080600960003373ffffffffffffffffffffffffffffffffffffffff1673ffffffffffffffffffffffffffffffffffffffff1681526020019081526020016000206000828254019250508190555050505050505050505050505050808060010191505061151d565b5050505050505050505050565b600260009054906101000a900473ffffffffffffffffffffffffffffffffffffffff1673ffffffffffffffffffffffffffffffffffffffff163373ffffffffffffffffffffffffffffffffffffffff1614611b1f576040517f08c379a0000000000000000000000000000000000000000000000000000000008152600401808060200182810382526038815260200180612fcb6038913960400191505060405180910390fd5b60008160ff1610158015611b37575060648160ff1611155b611b8c576040517f08c379a000000000000000000000000000000000000000000000000000000000815260040180806020018281038252602a815260200180613003602a913960400191505060405180910390fd5b80600760026101000a81548160ff021916908360ff16021790555050565b600260009054906101000a900473ffffffffffffffffffffffffffffffffffffffff1673ffffffffffffffffffffffffffffffffffffffff163373ffffffffffffffffffffffffffffffffffffffff1614611c50576040517f08c379a0000000000000000000000000000000000000000000000000000000008152600401808060200182810382526038815260200180612fcb6038913960400191505060405180910390fd5b8060088190555050565b600260009054906101000a900473ffffffffffffffffffffffffffffffffffffffff1673ffffffffffffffffffffffffffffffffffffffff163373ffffffffffffffffffffffffffffffffffffffff1614611d00576040517f08c379a0000000000000000000000000000000000000000000000000000000008152600401808060200182810382526038815260200180612fcb6038913960400191505060405180910390fd5b80600760006101000a81548161ffff021916908361ffff16021790555050565b600260009054906101000a900473ffffffffffffffffffffffffffffffffffffffff1673ffffffffffffffffffffffffffffffffffffffff163373ffffffffffffffffffffffffffffffffffffffff1614611dc6576040517f08c379a0000000000000000000000000000000000000000000000000000000008152600401808060200182810382526038815260200180612fcb6038913960400191505060405180910390fd5b600060038a8a6040518083838082843780830192505050925050509081526020016040518091039020905060008090505b81805490508161ffff161015611ee1578b73ffffffffffffffffffffffffffffffffffffffff16828261ffff1681548110611e2e57fe5b906000526020600020906003020160000160009054906101000a900473ffffffffffffffffffffffffffffffffffffffff1673ffffffffffffffffffffffffffffffffffffffff161415611ed4576000611ed3576040517f08c379a00000000000000000000000000000000000000000000000000000000081526004018080602001828103825260318152602001806130556031913960400191505060405180910390fd5b5b8080600101915050611df7565b50611eea612ce5565b60405180606001604052808d73ffffffffffffffffffffffffffffffffffffffff1681526020018a73ffffffffffffffffffffffffffffffffffffffff1681526020018973ffffffffffffffffffffffffffffffffffffffff1681525090508181908060018154018082558091505060019003906000526020600020906003020160009091909190915060008201518160000160006101000a81548173ffffffffffffffffffffffffffffffffffffffff021916908373ffffffffffffffffffffffffffffffffffffffff16021790555060208201518160010160006101000a81548173ffffffffffffffffffffffffffffffffffffffff021916908373ffffffffffffffffffffffffffffffffffffffff16021790555060408201518160020160006101000a81548173ffffffffffffffffffffffffffffffffffffffff021916908373ffffffffffffffffffffffffffffffffffffffff16021790555050508160038c8c6040518083838082843780830192505050925050509081526020016040518091039020908054612081929190612da9565b5061209c8988888660ff16600381111561209757fe5b612b16565b6120b68886868660ff1660038111156120b157fe5b612b16565b7f664e79b1312b5eebaad7ecf8bbd9c8601ff521d0676f4141e5e2361b8232c4a78b8b8e60038f8f60405180838380828437808301925050509250505090815260200160405180910390208054905060405180806020018473ffffffffffffffffffffffffffffffffffffffff1673ffffffffffffffffffffffffffffffffffffffff1681526020018381526020018281038252868682818152602001925080828437600081840152601f19601f8201169050808301925050509550505050505060405180910390a1505050505050505050505050565b565b600760029054906101000a900460ff1681565b600a6020528060005260406000206000915090505481565b600260009054906101000a900473ffffffffffffffffffffffffffffffffffffffff1673ffffffffffffffffffffffffffffffffffffffff163373ffffffffffffffffffffffffffffffffffffffff1614612260576040517f08c379a0000000000000000000000000000000000000000000000000000000008152600401808060200182810382526038815260200180612fcb6038913960400191505060405180910390fd5b600061c35090506060816040519080825280602002602001820160405280156122985781602001602082028036833780820191505090505b50905060008090505b828110156122e0578151668e1bc9bf040000816122ba57fe5b048282815181106122c757fe5b60200260200101818152505080806001019150506122a1565b505050565b600b6020528060005260406000206000915054906101000a900467ffffffffffffffff1681565b60096020528060005260406000206000915090505481565b600260009054906101000a900473ffffffffffffffffffffffffffffffffffffffff1673ffffffffffffffffffffffffffffffffffffffff163373ffffffffffffffffffffffffffffffffffffffff16146123ca576040517f08c379a0000000000000000000000000000000000000000000000000000000008152600401808060200182810382526038815260200180612fcb6038913960400191505060405180910390fd5b80600260006101000a81548173ffffffffffffffffffffffffffffffffffffffff021916908373ffffffffffffffffffffffffffffffffffffffff16021790555050565b600c6020528060005260406000206000915090505481565b600760009054906101000a900461ffff1681565b600260009054906101000a900473ffffffffffffffffffffffffffffffffffffffff1673ffffffffffffffffffffffffffffffffffffffff163373ffffffffffffffffffffffffffffffffffffffff16146124e0576040517f08c379a0000000000000000000000000000000000000000000000000000000008152600401808060200182810382526038815260200180612fcb6038913960400191505060405180910390fd5b6000600383836040518083838082843780830192505050925050509081526020016040518091039020905060007fffffffffffffffffffffffffffffffffffffffffffffffffffffffffffffffff905060008090505b82805490508161ffff1610156125d0578573ffffffffffffffffffffffffffffffffffffffff16838261ffff168154811061256d57fe5b906000526020600020906003020160000160009054906101000a900473ffffffffffffffffffffffffffffffffffffffff1673ffffffffffffffffffffffffffffffffffffffff1614156125c3578091506125d0565b8080600101915050612536565b5060008160010b121561262e576040517f08c379a000000000000000000000000000000000000000000000000000000000815260040180806020018281038252603e815260200180613086603e913960400191505060405180910390fd5b60008090505b60018380549050038161ffff1610156127cb57826001820161ffff168154811061265a57fe5b9060005260206000209060030201838261ffff168154811061267857fe5b90600052602060002090600302016000820160009054906101000a900473ffffffffffffffffffffffffffffffffffffffff168160000160006101000a81548173ffffffffffffffffffffffffffffffffffffffff021916908373ffffffffffffffffffffffffffffffffffffffff1602179055506001820160009054906101000a900473ffffffffffffffffffffffffffffffffffffffff168160010160006101000a81548173ffffffffffffffffffffffffffffffffffffffff021916908373ffffffffffffffffffffffffffffffffffffffff1602179055506002820160009054906101000a900473ffffffffffffffffffffffffffffffffffffffff168160020160006101000a81548173ffffffffffffffffffffffffffffffffffffffff021916908373ffffffffffffffffffffffffffffffffffffffff1602179055509050508080600101915050612634565b50818054806127d657fe5b6001900381819060005260206000209060030201600080820160006101000a81549073ffffffffffffffffffffffffffffffffffffffff02191690556001820160006101000a81549073ffffffffffffffffffffffffffffffffffffffff02191690556002820160006101000a81549073ffffffffffffffffffffffffffffffffffffffff0219169055505090558160038585604051808383808284378083019250505092505050908152602001604051809103902090805461289a929190612da9565b507f9d08943646bfdea4b560cea91746f695427bfcdc2145b1e09f7e11d145db3b7e8484876003888860405180838380828437808301925050509250505090815260200160405180910390208054905060405180806020018473ffffffffffffffffffffffffffffffffffffffff1673ffffffffffffffffffffffffffffffffffffffff1681526020018381526020018281038252868682818152602001925080828437600081840152601f19601f8201169050808301925050509550505050505060405180910390a15050505050565b6000806000806000808673ffffffffffffffffffffffffffffffffffffffff1663feaf968c6040518163ffffffff1660e01b815260040160a06040518083038186803b1580156129ba57600080fd5b505afa1580156129ce573d6000803e3d6000fd5b505050506040513d60a08110156129e457600080fd5b810190808051906020019092919080519060200190929190805190602001909291908051906020019092919080519060200190929190505050945094509450945094508395505050505050919050565b600080612a44836000015161296b565b9050600083604001516003811115612a5857fe5b60ff161415612a6a5780915050612b11565b600183604001516003811115612a7c57fe5b60ff161415612a985780600181612a8f57fe5b05915050612b11565b600283604001516003811115612aaa57fe5b60ff161415612ad0576000612ac2846020015161296b565b905080820292505050612b11565b600383604001516003811115612ae257fe5b60ff161415612b0f576000612afa846020015161296b565b9050808281612b0557fe5b0592505050612b11565b505b919050565b600460008573ffffffffffffffffffffffffffffffffffffffff1673ffffffffffffffffffffffffffffffffffffffff16815260200190815260200160002060010160159054906101000a900460ff16612cdf5760405180608001604052808473ffffffffffffffffffffffffffffffffffffffff1681526020018373ffffffffffffffffffffffffffffffffffffffff168152602001826003811115612bb957fe5b815260200160011515815250600460008673ffffffffffffffffffffffffffffffffffffffff1673ffffffffffffffffffffffffffffffffffffffff16815260200190815260200160002060008201518160000160006101000a81548173ffffffffffffffffffffffffffffffffffffffff021916908373ffffffffffffffffffffffffffffffffffffffff16021790555060208201518160010160006101000a81548173ffffffffffffffffffffffffffffffffffffffff021916908373ffffffffffffffffffffffffffffffffffffffff16021790555060408201518160010160146101000a81548160ff02191690836003811115612cb657fe5b021790555060608201518160010160156101000a81548160ff0219169083151502179055509050505b50505050565b6040518060600160405280600073ffffffffffffffffffffffffffffffffffffffff168152602001600073ffffffffffffffffffffffffffffffffffffffff168152602001600073ffffffffffffffffffffffffffffffffffffffff1681525090565b6040518060800160405280600073ffffffffffffffffffffffffffffffffffffffff168152602001600073ffffffffffffffffffffffffffffffffffffffff16815260200160006003811115612d9a57fe5b81526020016000151581525090565b828054828255906000526020600020906003028101928215612f255760005260206000209160030282015b82811115612f245782826000820160009054906101000a900473ffffffffffffffffffffffffffffffffffffffff168160000160006101000a81548173ffffffffffffffffffffffffffffffffffffffff021916908373ffffffffffffffffffffffffffffffffffffffff1602179055506001820160009054906101000a900473ffffffffffffffffffffffffffffffffffffffff168160010160006101000a81548173ffffffffffffffffffffffffffffffffffffffff021916908373ffffffffffffffffffffffffffffffffffffffff1602179055506002820160009054906101000a900473ffffffffffffffffffffffffffffffffffffffff168160020160006101000a81548173ffffffffffffffffffffffffffffffffffffffff021916908373ffffffffffffffffffffffffffffffffffffffff160217905550505091600301919060030190612dd4565b5b509050612f329190612f36565b5090565b612fc791905b80821115612fc357600080820160006101000a81549073ffffffffffffffffffffffffffffffffffffffff02191690556001820160006101000a81549073ffffffffffffffffffffffffffffffffffffffff02191690556002820160006101000a81549073ffffffffffffffffffffffffffffffffffffffff021916905550600301612f3c565b5090565b9056fe4f6e6c7920746865206f776e6572206f66207468697320636f6e74726163742063616e20706572666f726d207468697320616374696f6e2e50657263656e74206d75737420626520612076616c7565206265747765656e203020616e64203130302e4d657373616765206d757374206861766520612076616c75652067726561746572207468616e2030436f6e7472616374206164647265737320616c72656164792065786973747320666f7220746869732073747261746567794d61746368696e6720636f6e7472616374206164647265737320636f756c64206e6f7420626520666f756e6420666f722074686973207374726174656779a2646970667358221220396fc96c2d6e1c2ec7216c3605bc4d739691de2fb2e09a74bc12f0c0ad35defd64736f6c63430006040033",
  "source": "// SPDX-License-Identifier: UNLICENSED\npragma solidity >=0.6.2 <0.9.0;\n\n// Dependencies\nimport \"@chainlink/contracts/src/v0.6/interfaces/AggregatorV3Interface.sol\";\nimport \"./interfaces/IBEP20.sol\";\nimport \"./interfaces/IPancakeRouter02.sol\";\n\ncontract ZorroStrategy {\n    /* Types */\n    enum PriceCalculationMethod {\n        AOnly,\n        AInverse,\n        AMultipliedByB,\n        ADividedByB\n    }\n    struct LPContract {\n        address ammContractAddress;\n        address tokenA;\n        address tokenB;\n    }\n    struct TokenMeta {\n        AggregatorV3Interface priceFeedA;\n        AggregatorV3Interface priceFeedB;\n        PriceCalculationMethod priceCalculationMethod;\n        bool initialized;\n\n    }\n    /* Constants */\n    IPancakeRouter02 router = IPancakeRouter02(0x10ED43C718714eb63d5aA57B78B54704E256024E);\n    // TODO - Make absolutely certain is the correct BUSD. There seem to be many.\n    IBEP20 USDC = IBEP20(0x8AC76a51cc950d9822D68b83fE1Ad97B32Cd580d);\n\n    \n    /* Variables */\n    // Key addresses / ownership\n    address owner;\n    // Strategies\n    mapping(string => LPContract[]) public lpContracts;\n    // Price feed (Chainlink)\n    mapping(address => TokenMeta) internal tokenMetaInfo;\n    AggregatorV3Interface priceFeedBNBUSD = AggregatorV3Interface(0x0567F2323251f0Aab15c8dFb1967E4e8A7D42aeE);\n    // Balances of wallets by address, by token\n    mapping(address => mapping(address => uint)) bep20TokenBalances;\n\n\n    // Financial paramters\n    uint16 public compoundingFrequencyDays;\n    uint8 public performanceFeePercent;\n    uint8 slippageTolerancePercent = 1;\n    uint256 reservesForFeesETH = 18 finney; // About $5 in BNB at time of writing\n    \n    // Accounting\n    mapping(address => uint256) public liquidityTokenLedger;\n    mapping(address => uint256) public lastFeeTakenAmount;\n    mapping(address => uint64) public lastFeeTakenAt;\n    mapping(address => uint256) public lastProfitAmountPreFees;\n\n    // Events\n    event AddedContract(string strategy, address contractAddress, uint numContractsInStrategy);\n    event RemovedContract(string strategy, address contractAddress, uint numContractsInStrategy);\n    event AddedLiquidity(string strategy, uint256 amountTotal, uint256 liquidityEarned);\n\n    // Modifiers\n    modifier onlyOwner {\n        require(msg.sender == owner, \"Only the owner of this contract can perform this action.\");\n        _;\n    }\n\n    // Constructor\n    constructor () public {\n        // Mark owner of the contract\n        owner = msg.sender;\n        // Set initial fee-taking parameters\n        performanceFeePercent = 30;\n        compoundingFrequencyDays = 30;\n        // TODO: Set lpContracts for each strategy to begin with\n        lpContracts[\"stablecoin\"].push(LPContract(0xEc6557348085Aa57C72514D67070dC863C0a5A8c, 0x55d398326f99059fF775485246999027B3197955, 0x8AC76a51cc950d9822D68b83fE1Ad97B32Cd580d));\n        // TODO: Set ChainLink price feed contracts for each strategy to begin with\n        tokenMetaInfo[0x55d398326f99059fF775485246999027B3197955] = TokenMeta(AggregatorV3Interface(0xB97Ad0E74fa7d920791E90258A6E2085088b4320), AggregatorV3Interface(0x51597f405303C4377E36123cBc172b13269EA163), PriceCalculationMethod(0), true);\n        // TODO: Separate out this information for testnet vs mainnet\n        // TODO: ETH terminology is confusing.\n    }\n\n    // State-changing methods\n    function invest(string calldata strategy) external payable {\n        // TODO - Make sure to use safe maths library\n        uint256 grossAllocatableFundsETH = msg.value; // Does not include fees yet\n        uint256 netAllocatableFundsETH = grossAllocatableFundsETH - reservesForFeesETH;\n        // Requirements\n        require(msg.value > 0, \"Message must have a value greater than 0\");\n\n        // Prep variables\n        LPContract[] memory strategyContracts = lpContracts[strategy]; \n        uint256 strategyContractsLength = strategyContracts.length;\n        address[] memory allocatableTokens = new address[](strategyContractsLength * 2);\n        uint256[] memory allocatableFundsByTokenETH = new uint256[](strategyContractsLength * 2);\n        int latestETHPrice = getLatestPrice(priceFeedBNBUSD);\n\n        \n        // Determine the amount of each token to allocate. (2 tokens per pair)\n        uint256 allocationAmountPerTokenETH = (netAllocatableFundsETH / (strategyContractsLength * 2));\n\n        // Iterates through accepted LP contracts for this strategy\n        for (uint16 i=0;i<strategyContractsLength;i++) {\n            // Determine indexes for each token in pair\n            LPContract memory strategyContract = strategyContracts[i];\n            int16 tokenAIndex = -1;\n            int16 tokenBIndex = -1;\n            for (uint16 j=0;j<allocatableTokens.length;j++) {\n                if (allocatableTokens[j] == strategyContract.tokenA) {\n                    tokenAIndex = int16(j);\n                } else if (allocatableTokens[j] == strategyContract.tokenB) {\n                    tokenBIndex = int16(j);\n                }\n            }\n            \n            // Update allocatable funds for each token\n            int16 latestUpdatedIndexA = -1;\n            int16 latestUpdatedIndexB = -1;\n            if (tokenAIndex >= 0) {\n                // If token is already present, increment the allocatable amount for that token\n                allocatableFundsByTokenETH[uint16(tokenAIndex)] += allocationAmountPerTokenETH;\n            } else {\n                // If token is not present in allocations array yet, append its address and allocatable amount\n                allocatableTokens[uint16(latestUpdatedIndexA + 1)] = strategyContract.tokenA;\n                allocatableFundsByTokenETH[uint16(latestUpdatedIndexA + 1)] = allocationAmountPerTokenETH;\n            }\n            if (tokenBIndex >= 0) {\n                // If token is already present, increment the allocatable amount for that token\n                allocatableFundsByTokenETH[uint16(tokenBIndex)] += allocationAmountPerTokenETH;\n            } else {\n                // If token is not present in allocations array yet, append its address and allocatable amount\n                allocatableTokens[uint16(latestUpdatedIndexB + 1)] = strategyContract.tokenB;\n                allocatableFundsByTokenETH[uint16(latestUpdatedIndexB + 1)] = allocationAmountPerTokenETH;\n            }\n        }\n        \n        // Iterate through all allocatableTokens and swap to obtain proper allocations\n        for (uint16 i=0;i<allocatableTokens.length;i++) {\n            address token = allocatableTokens[i];\n            if (token == address(USDC)) {\n                // We already have USDC, skip\n                continue;\n            }\n            uint256 amountInETH = allocatableFundsByTokenETH[i];\n            TokenMeta memory tokenMeta = tokenMetaInfo[token];\n            // Use Chainlink as oracle to get fair pricing\n            int latestTokenPriceUSD = getLatestPriceForToken(tokenMeta);\n            uint256 amountInUSD = amountInETH * uint(latestETHPrice);\n            \n            // Approve transaction for BEP20 token\n            // TODO - approval only needs to be done once, upon first investment\n            require(USDC.approve(address(router), amountInUSD), \"Approval by router failed\");\n            // Perform swap\n            address[] memory path = new address[](2);\n            path[0] = address(USDC);\n            path[1] = token;\n            // Calculate min output amount, accounting for slippage tolerance\n            uint256 amountOutMin = (amountInUSD / uint(latestTokenPriceUSD)) * ((100 - slippageTolerancePercent)/100);\n            uint256[] memory amounts = router.swapExactTokensForTokens(amountInUSD, amountOutMin, path, msg.sender, block.timestamp);\n        }\n        \n        // Iterates through each LP contract and add liquidity\n        for (uint16 i=0;i<strategyContracts.length;i++) {\n            LPContract memory strategyContract = strategyContracts[i];\n            // Get latest prices from oracles and calculate fair exchange rates \n            TokenMeta memory tokenMetaA = tokenMetaInfo[strategyContract.tokenA];\n            TokenMeta memory tokenMetaB = tokenMetaInfo[strategyContract.tokenB];\n            int latestTokenPriceA = getLatestPriceForToken(tokenMetaA);\n            int latestTokenPriceB = getLatestPriceForToken(tokenMetaB);\n            uint256 amountInUSD = allocationAmountPerTokenETH * uint(latestETHPrice);\n            \n            // Calculate desired amounts\n            uint amountADesired = amountInUSD / uint(latestTokenPriceA);\n            uint amountBDesired = amountInUSD / uint(latestTokenPriceB);\n            // For slippage\n            uint amountAMin = ((100 - slippageTolerancePercent)/100) * amountADesired;\n            uint amountBMin = ((100 - slippageTolerancePercent)/100) * amountBDesired;\n            (\n                uint amountANormal,\n                uint amountBNormal, \n                uint liquidityNormal\n            ) = router.addLiquidity(strategyContract.tokenA, strategyContract.tokenB, amountADesired, amountBDesired, amountAMin, amountBMin, address(this), block.timestamp);\n            // Store liquidity token in ledger \n            liquidityTokenLedger[msg.sender] += liquidityNormal;   \n        }\n\n        // Notify - TODO\n\n    }\n\n    function getLatestPriceForToken(TokenMeta memory tokenMeta) internal view returns (int) {\n        int priceA = getLatestPrice(tokenMeta.priceFeedA);\n        if (uint8(tokenMeta.priceCalculationMethod) == 0) {\n            return priceA;\n        } else if (uint8(tokenMeta.priceCalculationMethod) == 1) {\n            return 1/priceA;\n        } else if (uint8(tokenMeta.priceCalculationMethod) == 2) {\n            int priceB = getLatestPrice(tokenMeta.priceFeedB);  \n            return priceA * priceB;\n        } else if (uint8(tokenMeta.priceCalculationMethod) == 3) {\n            int priceB = getLatestPrice(tokenMeta.priceFeedB);  \n            return priceA / priceB;\n        }\n        \n    }\n\n    function getLatestPrice(AggregatorV3Interface priceFeed) internal view returns (int) {\n        (\n            uint80 roundID, \n            int price,\n            uint startedAt,\n            uint timeStamp,\n            uint80 answeredInRound\n        ) = priceFeed.latestRoundData();\n        return price;\n    }\n\n    function withdraw() external {\n        // TODO\n    }\n\n    function takeProfit() external onlyOwner {\n        uint ct = 50000;\n        uint[] memory arr = new uint[](ct);\n        for (uint i=0;i<ct;i++) {\n            arr[i] = (2 finney + 38 finney) / arr.length;\n        }\n    }\n\n    function setCompoundingFrequency(uint16 minElapsedDays) external onlyOwner {\n        // Sets the max frequency of compounding (and thus profit-taking) to a value in days.\n        compoundingFrequencyDays = minElapsedDays;\n    }\n\n    function setZorroPerformanceFeePercent(uint8 feePct) external onlyOwner {\n        // Sets performance fee percentage to a new value.\n        require(feePct >= 0 && feePct <= 100, \"Percent must be a value between 0 and 100.\");\n        performanceFeePercent = feePct;\n    }\n\n    function changeOwner(address newOwner) external onlyOwner {\n        // Changes the owner of this contract\n        owner = newOwner;\n    }\n    \n    function setFeesReserve(uint256 reserveAmount) external onlyOwner {\n        reservesForFeesETH = reserveAmount;\n    }\n\n    function addLPContractToStrategy(address contractAddress, string calldata strategy, address tokenA, address tokenB, address priceFeedA1, address priceFeedA2, address priceFeedB1, address priceFeedB2, uint8 priceCalculationMethod) external onlyOwner {\n        // TODO - check to make sure there is a corresponding Chainlink oracle address\n        // Get current contracts associated with strategy provided\n        LPContract[] storage strategyContracts = lpContracts[strategy];\n        // Check to make sure contract doesn't already exist\n        for (uint16 i=0;i<strategyContracts.length;i++) {\n            if (strategyContracts[i].ammContractAddress == contractAddress) {\n                require(false, \"Contract address already exists for this strategy\");\n            }\n        }\n        // Add contract\n        LPContract memory lpContract = LPContract(contractAddress, tokenA, tokenB);\n        strategyContracts.push(lpContract);\n        lpContracts[strategy] = strategyContracts;\n        // Add token metadata if applicable\n        // priceFeedA, priceFeedB, PriceCalculationMethod(priceCalculationMethod)\n        // Add Oracle if does not exist\n        addTokenMetadataIfNotExists(tokenA, priceFeedA1, priceFeedA2, PriceCalculationMethod(priceCalculationMethod));\n        addTokenMetadataIfNotExists(tokenB, priceFeedB1, priceFeedB2, PriceCalculationMethod(priceCalculationMethod));\n        // Notify\n        emit AddedContract(strategy, contractAddress, lpContracts[strategy].length);\n    }\n\n    function addTokenMetadataIfNotExists(address tokenAddress, address priceFeedA, address priceFeedB, PriceCalculationMethod priceCalculationMethod) internal {\n        if (!tokenMetaInfo[tokenAddress].initialized) {\n            tokenMetaInfo[tokenAddress] = TokenMeta(AggregatorV3Interface(priceFeedA), AggregatorV3Interface(priceFeedB), priceCalculationMethod, true);\n        }\n    }\n\n    function removeLPContractFromStrategy(address contractAddress, string calldata strategy) external onlyOwner {\n        // Get current contracts associated with strategy provided\n        LPContract[] storage strategyContracts = lpContracts[strategy];\n        // Check to make sure contract exists\n        int16 matchingIndex = -1;\n        for (uint16 i=0;i<strategyContracts.length;i++) {\n            if (strategyContracts[i].ammContractAddress == contractAddress) {\n                matchingIndex = int16(i);\n                break;\n            }\n        }\n        // If does not exist, revert\n        require(matchingIndex >= 0, \"Matching contract address could not be found for this strategy\");\n        // If does exist, remove contract and notify (Delete while preserving order)\n        for (uint16 i=0;i<strategyContracts.length-1;i++) {\n            strategyContracts[i] = strategyContracts[i+1];\n        }\n        strategyContracts.pop();\n        \n        // Modify contract state with shortened array and notify\n        lpContracts[strategy] = strategyContracts;\n        emit RemovedContract(strategy, contractAddress, lpContracts[strategy].length);\n\n        // TODO - remove tokenmetainfo for a removed token so long as it's not used by other contracts\n    }\n    \n    fallback () external payable {\n        // TODO - fallback function. For accepting native currency from removeLiquidityETH.\n    }\n}",
  "sourcePath": "/Users/kristophm/workspace/crypto/zorro/zorro-truffle/contracts/ZorroStrategy.sol",
  "compiler": {
    "name": "solc",
    "version": "0.6.4+commit.1dca32f3.Emscripten.clang"
  },
  "schemaVersion": "3.4.0",
  "updatedAt": "2021-07-23T16:05:43.175Z",
  "devdoc": {
    "methods": {}
  },
  "userdoc": {
    "methods": {}
  }
}