{
  "contractName": "ZorroStrategy",
  "abi": [
    {
      "inputs": [],
      "stateMutability": "nonpayable",
      "type": "constructor"
    },
    {
      "anonymous": false,
      "inputs": [
        {
          "indexed": false,
          "internalType": "string",
          "name": "strategy",
          "type": "string"
        },
        {
          "indexed": false,
          "internalType": "address",
          "name": "contractAddress",
          "type": "address"
        },
        {
          "indexed": false,
          "internalType": "uint256",
          "name": "numContractsInStrategy",
          "type": "uint256"
        }
      ],
      "name": "AddedContract",
      "type": "event"
    },
    {
      "anonymous": false,
      "inputs": [
        {
          "indexed": false,
          "internalType": "string",
          "name": "strategy",
          "type": "string"
        },
        {
          "indexed": false,
          "internalType": "address",
          "name": "contractAddress",
          "type": "address"
        },
        {
          "indexed": false,
          "internalType": "uint256",
          "name": "numContractsInStrategy",
          "type": "uint256"
        }
      ],
      "name": "RemovedContract",
      "type": "event"
    },
    {
      "inputs": [],
      "name": "compoundingFrequencyDays",
      "outputs": [
        {
          "internalType": "uint16",
          "name": "",
          "type": "uint16"
        }
      ],
      "stateMutability": "view",
      "type": "function",
      "constant": true
    },
    {
      "inputs": [
        {
          "internalType": "address",
          "name": "",
          "type": "address"
        }
      ],
      "name": "lastFeeTakenAmount",
      "outputs": [
        {
          "internalType": "uint256",
          "name": "",
          "type": "uint256"
        }
      ],
      "stateMutability": "view",
      "type": "function",
      "constant": true
    },
    {
      "inputs": [
        {
          "internalType": "address",
          "name": "",
          "type": "address"
        }
      ],
      "name": "lastFeeTakenAt",
      "outputs": [
        {
          "internalType": "uint64",
          "name": "",
          "type": "uint64"
        }
      ],
      "stateMutability": "view",
      "type": "function",
      "constant": true
    },
    {
      "inputs": [
        {
          "internalType": "address",
          "name": "",
          "type": "address"
        }
      ],
      "name": "lastProfitAmountPreFees",
      "outputs": [
        {
          "internalType": "uint256",
          "name": "",
          "type": "uint256"
        }
      ],
      "stateMutability": "view",
      "type": "function",
      "constant": true
    },
    {
      "inputs": [
        {
          "internalType": "string",
          "name": "",
          "type": "string"
        },
        {
          "internalType": "uint256",
          "name": "",
          "type": "uint256"
        }
      ],
      "name": "lpContracts",
      "outputs": [
        {
          "internalType": "address",
          "name": "ammContractAddress",
          "type": "address"
        },
        {
          "internalType": "address",
          "name": "tokenA",
          "type": "address"
        },
        {
          "internalType": "address",
          "name": "tokenB",
          "type": "address"
        },
        {
          "internalType": "address",
          "name": "pricefeedA",
          "type": "address"
        },
        {
          "internalType": "address",
          "name": "pricefeedB",
          "type": "address"
        },
        {
          "internalType": "enum ZorroStrategy.PriceCalculationMethod",
          "name": "priceCalculationMethod",
          "type": "uint8"
        }
      ],
      "stateMutability": "view",
      "type": "function",
      "constant": true
    },
    {
      "inputs": [],
      "name": "performanceFeePercent",
      "outputs": [
        {
          "internalType": "uint8",
          "name": "",
          "type": "uint8"
        }
      ],
      "stateMutability": "view",
      "type": "function",
      "constant": true
    },
    {
      "inputs": [
        {
          "internalType": "address",
          "name": "",
          "type": "address"
        }
      ],
      "name": "priceFeedMaps",
      "outputs": [
        {
          "internalType": "address",
          "name": "",
          "type": "address"
        }
      ],
      "stateMutability": "view",
      "type": "function",
      "constant": true
    },
    {
      "inputs": [
        {
          "internalType": "string",
          "name": "strategy",
          "type": "string"
        }
      ],
      "name": "invest",
      "outputs": [],
      "stateMutability": "payable",
      "type": "function",
      "payable": true
    },
    {
      "inputs": [],
      "name": "withdraw",
      "outputs": [],
      "stateMutability": "nonpayable",
      "type": "function"
    },
    {
      "inputs": [],
      "name": "takeProfit",
      "outputs": [],
      "stateMutability": "nonpayable",
      "type": "function"
    },
    {
      "inputs": [
        {
          "internalType": "uint16",
          "name": "minElapsedDays",
          "type": "uint16"
        }
      ],
      "name": "setCompoundingFrequency",
      "outputs": [],
      "stateMutability": "nonpayable",
      "type": "function"
    },
    {
      "inputs": [
        {
          "internalType": "uint8",
          "name": "feePct",
          "type": "uint8"
        }
      ],
      "name": "setZorroPerformanceFeePercent",
      "outputs": [],
      "stateMutability": "nonpayable",
      "type": "function"
    },
    {
      "inputs": [
        {
          "internalType": "address",
          "name": "newOwner",
          "type": "address"
        }
      ],
      "name": "changeOwner",
      "outputs": [],
      "stateMutability": "nonpayable",
      "type": "function"
    },
    {
      "inputs": [
        {
          "internalType": "address",
          "name": "contractAddress",
          "type": "address"
        },
        {
          "internalType": "string",
          "name": "strategy",
          "type": "string"
        },
        {
          "internalType": "address",
          "name": "tokenA",
          "type": "address"
        },
        {
          "internalType": "address",
          "name": "tokenB",
          "type": "address"
        },
        {
          "internalType": "address",
          "name": "priceFeedA",
          "type": "address"
        },
        {
          "internalType": "address",
          "name": "priceFeedB",
          "type": "address"
        },
        {
          "internalType": "uint8",
          "name": "priceCalculationMethod",
          "type": "uint8"
        }
      ],
      "name": "addLPContractToStrategy",
      "outputs": [],
      "stateMutability": "nonpayable",
      "type": "function"
    },
    {
      "inputs": [
        {
          "internalType": "address",
          "name": "contractAddress",
          "type": "address"
        },
        {
          "internalType": "string",
          "name": "strategy",
          "type": "string"
        }
      ],
      "name": "removeLPContractFromStrategy",
      "outputs": [],
      "stateMutability": "nonpayable",
      "type": "function"
    }
  ],
  "bytecode": "0x608060405234801561001057600080fd5b50336000806101000a81548173ffffffffffffffffffffffffffffffffffffffff021916908373ffffffffffffffffffffffffffffffffffffffff160217905550601e600360026101000a81548160ff021916908360ff160217905550601e600360006101000a81548161ffff021916908361ffff16021790555061285c8061009a6000396000f3fe6080604052600436106100e85760003560e01c806370c105781161008a578063dc48fc3711610059578063dc48fc37146102c2578063e07f854c146102ff578063e11337ca1461032a578063f46e4b2314610353576100e8565b806370c105781461021c578063717553a814610233578063974be0ee1461025c578063a6f9dae114610299576100e8565b8063357a8330116100c6578063357a8330146101745780633ccfd60b1461019d57806348f5b980146101b457806354f2e831146101df576100e8565b8063048764cd146100ed5780630a8b78261461012f5780630ac0ac8b1461014b575b600080fd5b3480156100f957600080fd5b50610114600480360381019061010f9190611dee565b610390565b60405161012696959493929190612049565b60405180910390f35b61014960048036038101906101449190611da5565b6104ac565b005b34801561015757600080fd5b50610172600480360381019061016d9190611e77565b610812565b005b34801561018057600080fd5b5061019b60048036038101906101969190611e4a565b610915565b005b3480156101a957600080fd5b506101b26109c3565b005b3480156101c057600080fd5b506101c96109c5565b6040516101d691906121d9565b60405180910390f35b3480156101eb57600080fd5b5061020660048036038101906102019190611c5e565b6109d8565b60405161021391906121a3565b60405180910390f35b34801561022857600080fd5b506102316109f0565b005b34801561023f57600080fd5b5061025a60048036038101906102559190611ce7565b610a80565b005b34801561026857600080fd5b50610283600480360381019061027e9190611c5e565b610f30565b60405161029091906121be565b60405180910390f35b3480156102a557600080fd5b506102c060048036038101906102bb9190611c5e565b610f57565b005b3480156102ce57600080fd5b506102e960048036038101906102e49190611c5e565b611028565b6040516102f691906121a3565b60405180910390f35b34801561030b57600080fd5b50610314611040565b6040516103219190612188565b60405180910390f35b34801561033657600080fd5b50610351600480360381019061034c9190611c8b565b611054565b005b34801561035f57600080fd5b5061037a60048036038101906103759190611c5e565b611678565b604051610387919061202e565b60405180910390f35b60018280516020810182018051848252602083016020850120818352809550505050505081815481106103c257600080fd5b9060005260206000209060050201600091509150508060000160009054906101000a900473ffffffffffffffffffffffffffffffffffffffff16908060010160009054906101000a900473ffffffffffffffffffffffffffffffffffffffff16908060020160009054906101000a900473ffffffffffffffffffffffffffffffffffffffff16908060030160009054906101000a900473ffffffffffffffffffffffffffffffffffffffff16908060040160009054906101000a900473ffffffffffffffffffffffffffffffffffffffff16908060040160149054906101000a900460ff16905086565b6000349050600034116104f4576040517f08c379a00000000000000000000000000000000000000000000000000000000081526004016104eb90612128565b60405180910390fd5b60608060006001856040516105099190612017565b9081526020016040518091039020805480602002602001604051908101604052809291908181526020016000905b8282101561075257838290600052602060002090600502016040518060c00160405290816000820160009054906101000a900473ffffffffffffffffffffffffffffffffffffffff1673ffffffffffffffffffffffffffffffffffffffff1673ffffffffffffffffffffffffffffffffffffffff1681526020016001820160009054906101000a900473ffffffffffffffffffffffffffffffffffffffff1673ffffffffffffffffffffffffffffffffffffffff1673ffffffffffffffffffffffffffffffffffffffff1681526020016002820160009054906101000a900473ffffffffffffffffffffffffffffffffffffffff1673ffffffffffffffffffffffffffffffffffffffff1673ffffffffffffffffffffffffffffffffffffffff1681526020016003820160009054906101000a900473ffffffffffffffffffffffffffffffffffffffff1673ffffffffffffffffffffffffffffffffffffffff1673ffffffffffffffffffffffffffffffffffffffff1681526020016004820160009054906101000a900473ffffffffffffffffffffffffffffffffffffffff1673ffffffffffffffffffffffffffffffffffffffff1673ffffffffffffffffffffffffffffffffffffffff1681526020016004820160149054906101000a900460ff16600381111561072d5761072c61254a565b5b600381111561073f5761073e61254a565b5b8152505081526020019060010190610537565b505050509050600081519050600060028261076d9190612330565b8661077891906122ff565b905060005b828161ffff161015610808576000848261ffff16815181106107a2576107a16125a8565b5b6020026020010151905060006107bc8883602001516116ab565b905060006107ce8984604001516116ab565b90506107e1898985602001518886611759565b6107f2898985604001518885611759565b5050508080610800906124c1565b91505061077d565b5050505050505050565b60008054906101000a900473ffffffffffffffffffffffffffffffffffffffff1673ffffffffffffffffffffffffffffffffffffffff163373ffffffffffffffffffffffffffffffffffffffff16146108a0576040517f08c379a0000000000000000000000000000000000000000000000000000000008152600401610897906120e8565b60405180910390fd5b60008160ff16101580156108b8575060648160ff1611155b6108f7576040517f08c379a00000000000000000000000000000000000000000000000000000000081526004016108ee90612108565b60405180910390fd5b80600360026101000a81548160ff021916908360ff16021790555050565b60008054906101000a900473ffffffffffffffffffffffffffffffffffffffff1673ffffffffffffffffffffffffffffffffffffffff163373ffffffffffffffffffffffffffffffffffffffff16146109a3576040517f08c379a000000000000000000000000000000000000000000000000000000000815260040161099a906120e8565b60405180910390fd5b80600360006101000a81548161ffff021916908361ffff16021790555050565b565b600360029054906101000a900460ff1681565b60046020528060005260406000206000915090505481565b60008054906101000a900473ffffffffffffffffffffffffffffffffffffffff1673ffffffffffffffffffffffffffffffffffffffff163373ffffffffffffffffffffffffffffffffffffffff1614610a7e576040517f08c379a0000000000000000000000000000000000000000000000000000000008152600401610a75906120e8565b60405180910390fd5b565b60008054906101000a900473ffffffffffffffffffffffffffffffffffffffff1673ffffffffffffffffffffffffffffffffffffffff163373ffffffffffffffffffffffffffffffffffffffff1614610b0e576040517f08c379a0000000000000000000000000000000000000000000000000000000008152600401610b05906120e8565b60405180910390fd5b6000600187604051610b209190612017565b9081526020016040518091039020905060005b81805490508161ffff161015610c14578873ffffffffffffffffffffffffffffffffffffffff16828261ffff1681548110610b7157610b706125a8565b5b906000526020600020906005020160000160009054906101000a900473ffffffffffffffffffffffffffffffffffffffff1673ffffffffffffffffffffffffffffffffffffffff161415610c01576000610c00576040517f08c379a0000000000000000000000000000000000000000000000000000000008152600401610bf790612148565b60405180910390fd5b5b8080610c0c906124c1565b915050610b33565b5060006040518060c001604052808a73ffffffffffffffffffffffffffffffffffffffff1681526020018873ffffffffffffffffffffffffffffffffffffffff1681526020018773ffffffffffffffffffffffffffffffffffffffff1681526020018673ffffffffffffffffffffffffffffffffffffffff1681526020018573ffffffffffffffffffffffffffffffffffffffff1681526020018460ff166003811115610cc457610cc361254a565b5b6003811115610cd657610cd561254a565b5b81525090508181908060018154018082558091505060019003906000526020600020906005020160009091909190915060008201518160000160006101000a81548173ffffffffffffffffffffffffffffffffffffffff021916908373ffffffffffffffffffffffffffffffffffffffff16021790555060208201518160010160006101000a81548173ffffffffffffffffffffffffffffffffffffffff021916908373ffffffffffffffffffffffffffffffffffffffff16021790555060408201518160020160006101000a81548173ffffffffffffffffffffffffffffffffffffffff021916908373ffffffffffffffffffffffffffffffffffffffff16021790555060608201518160030160006101000a81548173ffffffffffffffffffffffffffffffffffffffff021916908373ffffffffffffffffffffffffffffffffffffffff16021790555060808201518160040160006101000a81548173ffffffffffffffffffffffffffffffffffffffff021916908373ffffffffffffffffffffffffffffffffffffffff16021790555060a08201518160040160146101000a81548160ff02191690836003811115610e9457610e9361254a565b5b0217905550505081600189604051610eac9190612017565b9081526020016040518091039020908054610ec8929190611814565b507f664e79b1312b5eebaad7ecf8bbd9c8601ff521d0676f4141e5e2361b8232c4a7888a60018b604051610efc9190612017565b908152602001604051809103902080549050604051610f1d939291906120aa565b60405180910390a1505050505050505050565b60056020528060005260406000206000915054906101000a900467ffffffffffffffff1681565b60008054906101000a900473ffffffffffffffffffffffffffffffffffffffff1673ffffffffffffffffffffffffffffffffffffffff163373ffffffffffffffffffffffffffffffffffffffff1614610fe5576040517f08c379a0000000000000000000000000000000000000000000000000000000008152600401610fdc906120e8565b60405180910390fd5b806000806101000a81548173ffffffffffffffffffffffffffffffffffffffff021916908373ffffffffffffffffffffffffffffffffffffffff16021790555050565b60066020528060005260406000206000915090505481565b600360009054906101000a900461ffff1681565b60008054906101000a900473ffffffffffffffffffffffffffffffffffffffff1673ffffffffffffffffffffffffffffffffffffffff163373ffffffffffffffffffffffffffffffffffffffff16146110e2576040517f08c379a00000000000000000000000000000000000000000000000000000000081526004016110d9906120e8565b60405180910390fd5b60006001826040516110f49190612017565b9081526020016040518091039020905060007fffffffffffffffffffffffffffffffffffffffffffffffffffffffffffffffff905060005b82805490508161ffff1610156111d3578473ffffffffffffffffffffffffffffffffffffffff16838261ffff168154811061116a576111696125a8565b5b906000526020600020906005020160000160009054906101000a900473ffffffffffffffffffffffffffffffffffffffff1673ffffffffffffffffffffffffffffffffffffffff1614156111c0578091506111d3565b80806111cb906124c1565b91505061112c565b5060008160010b121561121b576040517f08c379a000000000000000000000000000000000000000000000000000000000815260040161121290612168565b60405180910390fd5b60005b6001838054905061122f919061238a565b8161ffff1610156114e657826001826112489190612271565b61ffff168154811061125d5761125c6125a8565b5b9060005260206000209060050201838261ffff1681548110611282576112816125a8565b5b90600052602060002090600502016000820160009054906101000a900473ffffffffffffffffffffffffffffffffffffffff168160000160006101000a81548173ffffffffffffffffffffffffffffffffffffffff021916908373ffffffffffffffffffffffffffffffffffffffff1602179055506001820160009054906101000a900473ffffffffffffffffffffffffffffffffffffffff168160010160006101000a81548173ffffffffffffffffffffffffffffffffffffffff021916908373ffffffffffffffffffffffffffffffffffffffff1602179055506002820160009054906101000a900473ffffffffffffffffffffffffffffffffffffffff168160020160006101000a81548173ffffffffffffffffffffffffffffffffffffffff021916908373ffffffffffffffffffffffffffffffffffffffff1602179055506003820160009054906101000a900473ffffffffffffffffffffffffffffffffffffffff168160030160006101000a81548173ffffffffffffffffffffffffffffffffffffffff021916908373ffffffffffffffffffffffffffffffffffffffff1602179055506004820160009054906101000a900473ffffffffffffffffffffffffffffffffffffffff168160040160006101000a81548173ffffffffffffffffffffffffffffffffffffffff021916908373ffffffffffffffffffffffffffffffffffffffff1602179055506004820160149054906101000a900460ff168160040160146101000a81548160ff021916908360038111156114cb576114ca61254a565b5b021790555090505080806114de906124c1565b91505061121e565b50818054806114f8576114f7612579565b5b6001900381819060005260206000209060050201600080820160006101000a81549073ffffffffffffffffffffffffffffffffffffffff02191690556001820160006101000a81549073ffffffffffffffffffffffffffffffffffffffff02191690556002820160006101000a81549073ffffffffffffffffffffffffffffffffffffffff02191690556003820160006101000a81549073ffffffffffffffffffffffffffffffffffffffff02191690556004820160006101000a81549073ffffffffffffffffffffffffffffffffffffffff02191690556004820160146101000a81549060ff021916905550509055816001846040516115f99190612017565b9081526020016040518091039020908054611615929190611814565b507f9d08943646bfdea4b560cea91746f695427bfcdc2145b1e09f7e11d145db3b7e83856001866040516116499190612017565b90815260200160405180910390208054905060405161166a939291906120aa565b60405180910390a150505050565b60026020528060005260406000206000915054906101000a900473ffffffffffffffffffffffffffffffffffffffff1681565b600080600090505b83518161ffff16101561172e578273ffffffffffffffffffffffffffffffffffffffff16848261ffff16815181106116ee576116ed6125a8565b5b602002602001015173ffffffffffffffffffffffffffffffffffffffff16141561171b5780915050611753565b8080611726906124c1565b9150506116b3565b507fffffffffffffffffffffffffffffffffffffffffffffffffffffffffffffffff90505b92915050565b60008160010b1261179c5781848261ffff168151811061177c5761177b6125a8565b5b6020026020010181815161179091906122a9565b9150818152505061180d565b82858651815181106117b1576117b06125a8565b5b602002602001019073ffffffffffffffffffffffffffffffffffffffff16908173ffffffffffffffffffffffffffffffffffffffff16815250508184855181518110611800576117ff6125a8565b5b6020026020010181815250505b5050505050565b828054828255906000526020600020906005028101928215611a9b5760005260206000209160050282015b82811115611a9a5782826000820160009054906101000a900473ffffffffffffffffffffffffffffffffffffffff168160000160006101000a81548173ffffffffffffffffffffffffffffffffffffffff021916908373ffffffffffffffffffffffffffffffffffffffff1602179055506001820160009054906101000a900473ffffffffffffffffffffffffffffffffffffffff168160010160006101000a81548173ffffffffffffffffffffffffffffffffffffffff021916908373ffffffffffffffffffffffffffffffffffffffff1602179055506002820160009054906101000a900473ffffffffffffffffffffffffffffffffffffffff168160020160006101000a81548173ffffffffffffffffffffffffffffffffffffffff021916908373ffffffffffffffffffffffffffffffffffffffff1602179055506003820160009054906101000a900473ffffffffffffffffffffffffffffffffffffffff168160030160006101000a81548173ffffffffffffffffffffffffffffffffffffffff021916908373ffffffffffffffffffffffffffffffffffffffff1602179055506004820160009054906101000a900473ffffffffffffffffffffffffffffffffffffffff168160040160006101000a81548173ffffffffffffffffffffffffffffffffffffffff021916908373ffffffffffffffffffffffffffffffffffffffff1602179055506004820160149054906101000a900460ff168160040160146101000a81548160ff02191690836003811115611a8457611a8361254a565b5b021790555050509160050191906005019061183f565b5b509050611aa89190611aac565b5090565b5b80821115611b9657600080820160006101000a81549073ffffffffffffffffffffffffffffffffffffffff02191690556001820160006101000a81549073ffffffffffffffffffffffffffffffffffffffff02191690556002820160006101000a81549073ffffffffffffffffffffffffffffffffffffffff02191690556003820160006101000a81549073ffffffffffffffffffffffffffffffffffffffff02191690556004820160006101000a81549073ffffffffffffffffffffffffffffffffffffffff02191690556004820160146101000a81549060ff021916905550600501611aad565b5090565b6000611bad611ba884612219565b6121f4565b905082815260208101848484011115611bc957611bc861260b565b5b611bd484828561244e565b509392505050565b600081359050611beb816127ca565b92915050565b600082601f830112611c0657611c05612606565b5b8135611c16848260208601611b9a565b91505092915050565b600081359050611c2e816127e1565b92915050565b600081359050611c43816127f8565b92915050565b600081359050611c588161280f565b92915050565b600060208284031215611c7457611c73612615565b5b6000611c8284828501611bdc565b91505092915050565b60008060408385031215611ca257611ca1612615565b5b6000611cb085828601611bdc565b925050602083013567ffffffffffffffff811115611cd157611cd0612610565b5b611cdd85828601611bf1565b9150509250929050565b600080600080600080600060e0888a031215611d0657611d05612615565b5b6000611d148a828b01611bdc565b975050602088013567ffffffffffffffff811115611d3557611d34612610565b5b611d418a828b01611bf1565b9650506040611d528a828b01611bdc565b9550506060611d638a828b01611bdc565b9450506080611d748a828b01611bdc565b93505060a0611d858a828b01611bdc565b92505060c0611d968a828b01611c49565b91505092959891949750929550565b600060208284031215611dbb57611dba612615565b5b600082013567ffffffffffffffff811115611dd957611dd8612610565b5b611de584828501611bf1565b91505092915050565b60008060408385031215611e0557611e04612615565b5b600083013567ffffffffffffffff811115611e2357611e22612610565b5b611e2f85828601611bf1565b9250506020611e4085828601611c34565b9150509250929050565b600060208284031215611e6057611e5f612615565b5b6000611e6e84828501611c1f565b91505092915050565b600060208284031215611e8d57611e8c612615565b5b6000611e9b84828501611c49565b91505092915050565b611ead816123be565b82525050565b611ebc8161243c565b82525050565b6000611ecd8261224a565b611ed78185612255565b9350611ee781856020860161245d565b611ef08161261a565b840191505092915050565b6000611f068261224a565b611f108185612266565b9350611f2081856020860161245d565b80840191505092915050565b6000611f39603883612255565b9150611f448261262b565b604082019050919050565b6000611f5c602a83612255565b9150611f678261267a565b604082019050919050565b6000611f7f602883612255565b9150611f8a826126c9565b604082019050919050565b6000611fa2603183612255565b9150611fad82612718565b604082019050919050565b6000611fc5603e83612255565b9150611fd082612767565b604082019050919050565b611fe4816123e3565b82525050565b611ff381612411565b82525050565b6120028161241b565b82525050565b6120118161242f565b82525050565b60006120238284611efb565b915081905092915050565b60006020820190506120436000830184611ea4565b92915050565b600060c08201905061205e6000830189611ea4565b61206b6020830188611ea4565b6120786040830187611ea4565b6120856060830186611ea4565b6120926080830185611ea4565b61209f60a0830184611eb3565b979650505050505050565b600060608201905081810360008301526120c48186611ec2565b90506120d36020830185611ea4565b6120e06040830184611fea565b949350505050565b6000602082019050818103600083015261210181611f2c565b9050919050565b6000602082019050818103600083015261212181611f4f565b9050919050565b6000602082019050818103600083015261214181611f72565b9050919050565b6000602082019050818103600083015261216181611f95565b9050919050565b6000602082019050818103600083015261218181611fb8565b9050919050565b600060208201905061219d6000830184611fdb565b92915050565b60006020820190506121b86000830184611fea565b92915050565b60006020820190506121d36000830184611ff9565b92915050565b60006020820190506121ee6000830184612008565b92915050565b60006121fe61220f565b905061220a8282612490565b919050565b6000604051905090565b600067ffffffffffffffff821115612234576122336125d7565b5b61223d8261261a565b9050602081019050919050565b600081519050919050565b600082825260208201905092915050565b600081905092915050565b600061227c826123e3565b9150612287836123e3565b92508261ffff0382111561229e5761229d6124ec565b5b828201905092915050565b60006122b482612411565b91506122bf83612411565b9250827fffffffffffffffffffffffffffffffffffffffffffffffffffffffffffffffff038211156122f4576122f36124ec565b5b828201905092915050565b600061230a82612411565b915061231583612411565b9250826123255761232461251b565b5b828204905092915050565b600061233b82612411565b915061234683612411565b9250817fffffffffffffffffffffffffffffffffffffffffffffffffffffffffffffffff048311821515161561237f5761237e6124ec565b5b828202905092915050565b600061239582612411565b91506123a083612411565b9250828210156123b3576123b26124ec565b5b828203905092915050565b60006123c9826123f1565b9050919050565b60008190506123de826127b6565b919050565b600061ffff82169050919050565b600073ffffffffffffffffffffffffffffffffffffffff82169050919050565b6000819050919050565b600067ffffffffffffffff82169050919050565b600060ff82169050919050565b6000612447826123d0565b9050919050565b82818337600083830152505050565b60005b8381101561247b578082015181840152602081019050612460565b8381111561248a576000848401525b50505050565b6124998261261a565b810181811067ffffffffffffffff821117156124b8576124b76125d7565b5b80604052505050565b60006124cc826123e3565b915061ffff8214156124e1576124e06124ec565b5b600182019050919050565b7f4e487b7100000000000000000000000000000000000000000000000000000000600052601160045260246000fd5b7f4e487b7100000000000000000000000000000000000000000000000000000000600052601260045260246000fd5b7f4e487b7100000000000000000000000000000000000000000000000000000000600052602160045260246000fd5b7f4e487b7100000000000000000000000000000000000000000000000000000000600052603160045260246000fd5b7f4e487b7100000000000000000000000000000000000000000000000000000000600052603260045260246000fd5b7f4e487b7100000000000000000000000000000000000000000000000000000000600052604160045260246000fd5b600080fd5b600080fd5b600080fd5b600080fd5b6000601f19601f8301169050919050565b7f4f6e6c7920746865206f776e6572206f66207468697320636f6e74726163742060008201527f63616e20706572666f726d207468697320616374696f6e2e0000000000000000602082015250565b7f50657263656e74206d75737420626520612076616c7565206265747765656e2060008201527f3020616e64203130302e00000000000000000000000000000000000000000000602082015250565b7f4d657373616765206d757374206861766520612076616c75652067726561746560008201527f72207468616e2030000000000000000000000000000000000000000000000000602082015250565b7f436f6e7472616374206164647265737320616c7265616479206578697374732060008201527f666f722074686973207374726174656779000000000000000000000000000000602082015250565b7f4d61746368696e6720636f6e7472616374206164647265737320636f756c642060008201527f6e6f7420626520666f756e6420666f7220746869732073747261746567790000602082015250565b600481106127c7576127c661254a565b5b50565b6127d3816123be565b81146127de57600080fd5b50565b6127ea816123e3565b81146127f557600080fd5b50565b61280181612411565b811461280c57600080fd5b50565b6128188161242f565b811461282357600080fd5b5056fea26469706673582212209133ad752974be4e2fb7b0bd7b6594a7d2d8dd8c52fe3bdc9c39609af09413bf64736f6c63430008060033",
  "immutableReferences": {},
  "source": "// SPDX-License-Identifier: UNLICENSED\npragma solidity >=0.8.6 <0.9.0;\n\n// Dependencies\n// import \"@chainlink/contracts/src/v0.6/interfaces/AggregatorV3Interface.sol\";\n\ncontract ZorroStrategy {\n    /* Types */\n    enum PriceCalculationMethod {\n        AOnly,\n        AInverse,\n        AMultipliedByB,\n        ADividedByB\n    }\n    struct LPContract {\n        address ammContractAddress;\n        address tokenA;\n        address tokenB;\n        address pricefeedA;\n        address pricefeedB;\n        PriceCalculationMethod priceCalculationMethod;\n    }\n    /* Constants */\n\n    /* Variables */\n    // Key addresses / ownership\n    address owner;\n    // Strategies\n    mapping(string => LPContract[]) public lpContracts;\n    // Price feed (Chainlink) - maps \n    mapping(address => address) public priceFeedMaps;\n\n\n    // Financial paramters\n    uint16 public compoundingFrequencyDays;\n    uint8 public performanceFeePercent;\n\n    // Mappings?\n    mapping(address => uint256) public lastFeeTakenAmount;\n    mapping(address => uint64) public lastFeeTakenAt;\n    mapping(address => uint256) public lastProfitAmountPreFees;\n\n    // mapping (address => uint256) public balances;\n\n    // Events\n    event AddedContract(string strategy, address contractAddress, uint numContractsInStrategy);\n    event RemovedContract(string strategy, address contractAddress, uint numContractsInStrategy);\n\n    // Modifiers\n    modifier onlyOwner {\n        require(msg.sender == owner, \"Only the owner of this contract can perform this action.\");\n        _;\n    }\n\n    // Constructor\n    constructor () {\n        // Mark owner of the contract\n        owner = msg.sender;\n        // Set initial fee-taking parameters\n        performanceFeePercent = 30;\n        compoundingFrequencyDays = 30;\n        // TODO: Set lpContracts for each strategy to begin with\n        // TODO: Set ChainLink price feed contracts for each strategy to begin with\n    }\n\n    // State-changing methods\n    function invest(string memory strategy) external payable {\n        // TODO - How do we know we have enough fees to complete this entire transaction?\n        // TODO - Make sure to use safe maths library\n        uint256 allocatableFunds = msg.value; // TODO: - minus fees \n        // Requirements\n        require(msg.value > 0, \"Message must have a value greater than 0\");\n\n        // Prep variables\n        address[] memory allocatableTokens;\n        uint256[] memory allocatableFundsByToken;\n\n        LPContract[] memory strategyContracts = lpContracts[strategy]; \n        uint256 strategyContractsLength = strategyContracts.length;\n        \n        // Determine the amount of each token to procure. (2 tokens per pair)\n        uint256 allocationAmountPerToken = (allocatableFunds / (strategyContractsLength * 2));\n\n        // Iterates through accepted LP contracts for this strategy\n        for (uint16 i=0;i<strategyContractsLength;i++) {\n            // Determine indexes for each token in pair\n            LPContract memory strategyContract = strategyContracts[i];\n            int16 tokenAIndex = findMatchingAddressIndex(allocatableTokens, strategyContract.tokenA);\n            int16 tokenBIndex = findMatchingAddressIndex(allocatableTokens, strategyContract.tokenB);\n            \n            // Update allocatable funds for each token\n            allocateFundsForToken(allocatableTokens, allocatableFundsByToken, strategyContract.tokenA, allocationAmountPerToken, tokenAIndex);\n            allocateFundsForToken(allocatableTokens, allocatableFundsByToken, strategyContract.tokenB, allocationAmountPerToken, tokenBIndex);\n            // -- Perform swaps to get all required underlying tokens (Use oracle for fair pricing)\n            \n            // -- Engage in each LP contract\n\n            // -- Store received LP token in Zorro contract\n        }\n\n    }\n\n    function allocateFundsForToken(address[] memory allocatableTokens, uint256[] memory allocatableFundsByToken, address tokenAddress, uint256 allocatableAmountPerToken, int16 arrayIndex) private pure {\n        if (arrayIndex >= 0) {\n            // If token is already present, increment the allocatable amount for that token\n            allocatableFundsByToken[uint16(arrayIndex)] += allocatableAmountPerToken;\n        } else {\n            // If token is not present in allocations array yet, append its address and allocatable amount\n            allocatableTokens[allocatableTokens.length] = tokenAddress;\n            allocatableFundsByToken[allocatableFundsByToken.length] = allocatableAmountPerToken;\n        }\n    }\n\n    function findMatchingAddressIndex(address[] memory addresses, address value) private pure returns(int16) {\n        for (uint16 i=0;i<addresses.length;i++) {\n            if (addresses[i] == value) {\n                return int16(i);\n            }\n        }\n        return -1;\n    }\n\n    function withdraw() external {\n        // TODO\n    }\n\n    function takeProfit() external onlyOwner {\n        // TODO\n    }\n\n    function setCompoundingFrequency(uint16 minElapsedDays) external onlyOwner {\n        // Sets the max frequency of compounding (and thus profit-taking) to a value in days.\n        compoundingFrequencyDays = minElapsedDays;\n    }\n\n    function setZorroPerformanceFeePercent(uint8 feePct) external onlyOwner {\n        // Sets performance fee percentage to a new value.\n        require(feePct >= 0 && feePct <= 100, \"Percent must be a value between 0 and 100.\");\n        performanceFeePercent = feePct;\n    }\n\n    function changeOwner(address newOwner) external onlyOwner {\n        // Changes the owner of this contract\n        owner = newOwner;\n    }\n\n    function addLPContractToStrategy(address contractAddress, string memory strategy, address tokenA, address tokenB, address priceFeedA, address priceFeedB, uint8 priceCalculationMethod) external onlyOwner {\n        // Get current contracts associated with strategy provided\n        LPContract[] storage strategyContracts = lpContracts[strategy];\n        // Check to make sure contract doesn't already exist\n        for (uint16 i=0;i<strategyContracts.length;i++) {\n            if (strategyContracts[i].ammContractAddress == contractAddress) {\n                require(false, \"Contract address already exists for this strategy\");\n            }\n        }\n        // Add contract & notify\n        LPContract memory lpContract = LPContract(contractAddress, tokenA, tokenB, priceFeedA, priceFeedB, PriceCalculationMethod(priceCalculationMethod));\n        strategyContracts.push(lpContract);\n        lpContracts[strategy] = strategyContracts;\n        emit AddedContract(strategy, contractAddress, lpContracts[strategy].length);\n    }\n\n    function removeLPContractFromStrategy(address contractAddress, string memory strategy) external onlyOwner {\n        // Get current contracts associated with strategy provided\n        LPContract[] storage strategyContracts = lpContracts[strategy];\n        // Check to make sure contract exists\n        int16 matchingIndex = -1;\n        for (uint16 i=0;i<strategyContracts.length;i++) {\n            if (strategyContracts[i].ammContractAddress == contractAddress) {\n                matchingIndex = int16(i);\n                break;\n            }\n        }\n        // If does not exist, revert\n        require(matchingIndex >= 0, \"Matching contract address could not be found for this strategy\");\n        // If does exist, remove contract and notify (Delete while preserving order)\n        for (uint16 i=0;i<strategyContracts.length-1;i++) {\n            strategyContracts[i] = strategyContracts[i+1];\n        }\n        strategyContracts.pop();\n        \n        // Modify contract state with shortened array and notify\n        lpContracts[strategy] = strategyContracts;\n        emit RemovedContract(strategy, contractAddress, lpContracts[strategy].length);\n    }\n}",
  "sourcePath": "/Users/kristophm/workspace/crypto/zorro/zorro-truffle/contracts/ZorroStrategy.sol",
  "compiler": {
    "name": "solc",
    "version": "0.8.6+commit.11564f7e.Emscripten.clang"
  },
  "schemaVersion": "3.4.0",
  "updatedAt": "2021-07-20T14:54:44.670Z",
  "networkType": "ethereum",
  "devdoc": {
    "kind": "dev",
    "methods": {},
    "version": 1
  },
  "userdoc": {
    "kind": "user",
    "methods": {},
    "version": 1
  }
}